:020000040000FA
:10000000A8290020F90200000103000003030000FA
:1000100005030000070300000903000000000000C2
:100020000000000000000000000000000B030000C2
:100030000D030000000000000F030000110300008A
:100040001303000013030000D9080000130300008D
:10005000130300001303000013030000B1030000AA
:1000600075080000890800009D08000013030000C7
:100070001303000013030000130300001303000028
:100080001303000013030000130300001303000018
:100090001303000013030000130300001303000008
:1000A0001303000013030000B1080000C50800009E
:1000B0001303000013030000000000000000000014
:1000C00013030000130300001303000013030000D8
:1000D00013030000130300001303000000000000DE
:1000E0000000000000000000000000000000000010
:1000F0000000000000000000000000000000000000
:1001000000000000000000000000000000000000EF
:1001100000000000000000000000000000000000DF
:1001200000000000000000000000000000000000CF
:1001300000000000000000000000000000000000BF
:1001400000000000000000000000000000000000AF
:10015000000000000000000000000000000000009F
:10016000000000000000000000000000000000008F
:10017000000000000000000000000000000000007F
:10018000000000000000000000000000000000006F
:10019000000000000000000000000000000000005F
:1001A000000000000000000000000000000000004F
:1001B000000000000000000000000000000000003F
:1001C000000000000000000000000000000000002F
:1001D000000000000000000000000000000000001F
:1001E000000000000000000000000000000000000F
:1001F00000000000000000000000000000000000FF
:10020000DFF80CD000F0C2F800480047390F0000BA
:10021000A829002030B4044654E8000F0D4644E8F5
:100220000053002BF8D1156030BC704730B4044641
:1002300054E8000F40EA010544E80053002BF7D1D1
:10024000156030BC704730B4044654E8000F00EA33
:10025000010544E80053002BF7D1156030BC70470E
:1002600030B4044654E8000F80EA010544E8005326
:10027000002BF7D1156030BC704730B4044654E809
:10028000000F00EB010544E80053002BF7D1156087
:1002900030BC704730B4044654E8000FA0EB0105B1
:1002A00044E80053002BF7D1156030BC704770B4A0
:1002B00004464FF0000054E8006F0D68AE4207BFDF
:1002C00044E80023012044E800630E60002B1CBFBB
:1002D0000020F0E770BC704730B4044654E8000FCB
:1002E00088422CBF451A054644E80053002BF5D13F
:1002F000156030BC7047000006488047064800473C
:10030000FEE7FEE7FEE7FEE7FEE7FEE7FEE7FEE7C5
:10031000FEE7FEE7590500000102000000487047B3
:100320002832000040EA01039B0703D009E008C916
:10033000121F08C0042AFAD203E011F8013B00F8AA
:10034000013B521EF9D27047D2B201E000F8012BF6
:10035000491EFBD270470022F6E710B513460A4645
:1003600004461946FFF7F0FF204610BD421C10F866
:10037000011B0029FBD1801A7047034611F8012B9D
:1003800000F8012B002AF9D118467047064C074D9A
:1003900006E0E06840F0010394E807009847103455
:1003A000AC42F6D3FFF730FF9C360000BC360000AD
:1003B0002DE9FE434FF48278404601F029FC4C4F72
:1003C00000254C4C012600B3404601F029FC94F86E
:1003D0002E0010B194F82F10D1B18DF80050616843
:1003E00001912189ADF80810E26832B1218B618357
:1003F00062602181E56010B102E0257400E03E609A
:1004000021686846884784F82F5094F82E0060B31E
:100410004FF48077384601F0FBFB30B3384601F0EB
:10042000FFFB628B94F82D108A420AD9A2EB0100DF
:1004300080B260832289A2EB0000626802EB400078
:1004400005E007D1E06828B184F82F60658301F0EA
:10045000CDFB04E08A4202D184F82F6065834046D8
:1004600001F0DEFB2248001D06604FF48877384615
:1004700001F0CEFB48B1384601F0D2FB25740220D2
:100480008DF800002168684688474FF48A7738461F
:1004900001F0BEFB28B1384601F0C2FB2574BDE86F
:1004A000FE834FF000484FF48C7967691DE000BF70
:1004B000B7FA87F028FA00F109EB80058F43284648
:1004C00001F0A6FB88B1284601F0AAFBA5F58C75C2
:1004D000E8088DF8040045F38000401C8DF80060AA
:1004E0008DF80500216868468847002FE0D1D6E7DF
:1004F00000700040F000002000F0F4B970B50E4626
:10050000144900EB400001EBC0051446E86A1835B9
:1005100020B101280FD0022805D113E0284600F0B1
:1005200015FAA04201D2002411E0224631462846A5
:1005300000F044FA0BE0284600F008FAA042F4D29A
:100540000446F2E73146284600F00BFA04462046FE
:1005500070BD00001C070020F0B5B5480023021D47
:100560000178101D01254FF0805406290BD1167813
:10057000360708D10678C6F30316032E06D0042EDC
:1005800004D0052E02D0062907D00EE0B4F824636B
:10059000A84FC6F304263E6002E01678360704D161
:1005A0000678C6F30316032E02D0062904D00FE006
:1005B000A24FA14E7E670EE01678360708D1067866
:1005C000C6F30316032E06D0042E04D0052E02D047
:1005D000062907D00EE0D4F84462994FC6F342369C
:1005E0003E6002E01678360704D10678C6F303169B
:1005F000032E02D0062906D011E0924E376827F06C
:10060000807737600EE01678360708D10678C6F393
:100610000316032E06D0042E04D0052E02D0062980
:100620000AD011E04FF08046C6F80C31C6F8103100
:10063000834E361F336002E01678360704D1067801
:10064000C6F30316032E02D0062905D00CE07C4F1A
:10065000032664373E600AE01678360704D1067830
:10066000C6F30316032E02D006290DD014E0764FF0
:1006700005263E60744E78363560734E083633601A
:100680003F263F1D3E6002E01678360704D106780B
:10069000C6F30316052E02D0062957D062E06B4E32
:1006A00036686B4F3E60694E361D36683F1D3E60B2
:1006B000664E083636683F1D3E60644E0C3636681E
:1006C0003F1D3E60614E103636683F1D3E605F4EF6
:1006D000143636683F1D3E605C4E183636685C4FF7
:1006E00020373E60594E1C3636683F1D3E60574EDF
:1006F000203636683F1D3E60544E243636683F1D16
:100700003E60524E283636683F1D3E604F4E2C36B6
:1007100036683F1D3E604D4E303636684C4F403790
:100720003E604A4E343636683F1D3E60474E38368E
:1007300036683F1D3E60454E3C3636683F1D3E6084
:10074000424E403636683F1D3E6002E0167836075E
:1007500008D10678C6F30316032E06D0042E04D063
:10076000052E02D0062907D019E0D4F85812394ACC
:1007700001F04F01116002E0117809070FD10078F4
:10078000C0F30310032803D0042801D0052806D1A4
:1007900031480168C90702D06FF001010160D4F847
:1007A0003001062808D1D4F83401062804D12B489A
:1007B000016841F48061016022487438016841F4A5
:1007C00070010160BFF34F8FBFF36F8F4FF01021A7
:1007D000D1F80002002803DBD1F80402002822DA55
:1007E0001F4A15601F480468002CFCD01524C1F86E
:1007F00000420568002DFCD0C1F8044201680029C0
:10080000FCD0136001680029FCD0BFF34F8F0D4866
:10081000F0380168144A01F4E06111430160BFF34C
:100820004F8F00BFFDE7124910480860F0BD00007F
:10083000E00F00F0403501400DF0ADBA00C00740B8
:100840003C050040FCED00E01056004004040010A0
:1008500020C50040E40E0040000400403C1700406A
:1008600004E5014000E401400400FA050090D003D3
:10087000B800002004220249024800F0D9BA000062
:10088000200100200080004004220249024800F0BC
:10089000CFBA00002C010020009000400422024941
:1008A000024800F0C5BA00003801002000A0004056
:1008B00006220249024800F0BBBA000044010020B1
:1008C00000A0014006220249024800F0B1BA00002F
:1008D0005001002000B001400148006800470000BE
:1008E0002000002010B5124C02202061606111A090
:1008F000A06104F17800E0614FF4007020620020F4
:10090000A06260620BA1A164E06204F51E71E16463
:100910001021A065C4E91410E06509A1E01DFFF7EE
:100920002CFD08A12046FFF728FD2020A07110BD56
:100930001C0700205465726D696E616C0000000038
:100940005254540053454747455200000269C1685C
:100950008A4203D88068401A104400E0501A401EB2
:1009600070472DE9F047C4681746894606464FF0A0
:1009700000083069A04201D9051B02E0B168201AC5
:100980000D1AB0686D1E001BA84200D80546BD4276
:1009900000D33D4670682A4620444946FFF7C2FC12
:1009A000B0687F1B2C44A844A944A04200D1002475
:1009B000F460002FDDD14046BDE8F0872DE9F0411D
:1009C00004468846D4E90207C51BE16860681646FC
:1009D0000844B54206D94146FFF7A4FCB819E060C7
:1009E000BDE8F0812A464146FFF79CFC761B08EBE8
:1009F000050132466068FFF795FCE660F0E702E02B
:100A000008C8121F08C1002AFAD170477047002099
:100A100001E001C1121F002AFBD1704772B600F03D
:100A2000DDFF00BF00F018FE0028FBD1104C0121B3
:100A3000208801EB00400FA100F01AFF1048006869
:100A4000C00700D000BE2088022101EB00400DA1AC
:100A500000F00EFFBFF34F8F0948E43801680D4ADC
:100A600001F4E06111430160BFF34F8F00BFFDE768
:100A7000D8000020466174616C206572726F72004C
:100A8000F0ED00E053797374656D207265736574E1
:100A9000000000000400FA050EB500210091CDE928
:100AA00001106A4644F20100FFF7B8FF0EBD00F0E6
:100AB00003B800F009B8000072B602480168491C8A
:100AC000016070472800002003490868401E086044
:100AD00000D162B670470000280000202DE9F041E7
:100AE000064608680C46411C4FF0A0474FF0010530
:100AF00006D005FA00F1C7F80815206800F0A6FC3A
:100B00006068411C02D0002100F08EFC3168A069B1
:100B1000C1F82405607D227D31681043C1F86C0561
:100B2000D4E900123068C0F81425C0F80C15207DF7
:100B3000012815D1A068411C02D0002100F074FCEE
:100B4000E068411C05D08540C7F80855E06800F012
:100B50007DFCD4E902123068C0F80825C0F81015F1
:100B6000BDE8F0812DE9F041064608680C46411CBD
:100B70004FF0A0474FF0010506D005FA00F1C7F885
:100B80000815206800F06CFC6068411C02D0002150
:100B900000F053FC3168A069C1F82405607D217D17
:100BA00032680843C2F86C05D4E900123068C0F816
:100BB0000C15C0F81425207D012815D1A068411C12
:100BC00002D0002100F039FCE068411C05D08540CE
:100BD000C7F80855E06800F043FCD4E90212306819
:100BE000C0F80825C0F81015BDE8F0812DE9F047E0
:100BF0000546861C90460F464FF001090020FFF77E
:100C000056FF1B4C20683860D4E90001401AA168E7
:100C100004F21C47081A0EE00121384600F020FAC1
:100C200000F03CF90146384600F01AFAD4E9000118
:100C3000401AA168081A401C8642EDD8B8F1000F8E
:100C400003D0052065F3891002E0062065F39F506C
:100C5000A2682168114004EB8101C860206830441B
:100C600020600020FFF725FF4846BDE8F087000020
:100C7000F802002030B482680468531C8360A154D9
:100C8000D0E901128A4202D330BC00F09EBA30BCD7
:100C900070470000034803C8814201D1012070471A
:100CA00000207047F802002010B50021024800F033
:100CB000E2F980F3100010BD140700202DE9FC5F5D
:100CC0000E008346DDE90C47C6F1000098469246C7
:100CD000814600D40846012503E000BF90FBFAF0EE
:100CE0006D1C5045FADAA84500D9454624B1002EBE
:100CF00001DB780700D5641EB80702D5B8F1000FF4
:100D00000AD0F80708D13CB1A54205D220215846A7
:100D1000641EFFF7AFFFF6E7002E02DA4E462D21E4
:100D200002E0780703D52B215846FFF7A3FF07F011
:100D3000030002280BD1B8F1000F08D13CB1A54245
:100D400005D230215846641EFFF794FFF6E7CDE93F
:100D50000047434652463146584602F04DF8BDE83A
:100D6000FC9F000070B50D46044600684FF4887182
:100D700000F0BAFF4FF49071206800F0B5FF4FF417
:100D80009271206800F0B0FF4FF4A271206800F06B
:100D9000ABFF20681249C0F8041320686907000BF4
:100DA00040B2090E002806DA00F00F0000F1E02042
:100DB00080F8141D03E000F1E02080F800142068A2
:100DC0000121000B40B200F01F0291404009800059
:100DD00000F1E020C0F88012C0F8001170BD0000E2
:100DE00010030200024600201268930702D0530746
:100DF00002D47047500714D502F00300012802D036
:100E000002280CD105E0C2F383100B68801C184443
:100E100004E00223086803EB9252104408600120AA
:100E20007047086800EB9253C2F38910401CEEE74C
:100E30002DE9F041174688460646002417E000BF1A
:100E40004FF4A07000EB84054FF480307159A0403E
:100E500059B1D6F80413014207D02946304600F0B4
:100E600027FFD8E9002128469047641CE4B2BC4221
:100E7000E6D3BDE8F08100000121814003484068CD
:100E8000014201D001207047002070471800002067
:100E900001218140080300D0012070472DE9FF4166
:100EA0000026234800F0D9F82148001F074600F02B
:100EB000D4F8204C60680090A56800E0009869466E
:100EC000284004EB80000C30FFF78CFF0028F5D1A0
:100ED00001AA009901EA050304EB8303491CDB68BE
:100EE00042F82030401C00910228F2D3019800F013
:100EF000030001280BD0022810D10198032101EB37
:100F000090500099BDF80A6001EB900005E001984F
:100F1000BDF80A60C0F3831008440090384600F022
:100F200099F808B10098606004B03046BDE8F081DF
:100F300010070020F80200204FF40041002000F0CC
:100F400009FD08B1FFF7A8FD00F06EFB00F020FEE0
:100F500008B1FFF7A1FD01F0ADFC01F0DDFC01F0EF
:100F6000CDFC08480321008801EB004006A100F0F9
:100F70007FFC00BF00F020FE00F06EFB0028FBD1DC
:100F8000F8E70000D8000020534141444320484185
:100F90004C2073696D706C65206578616D706C654F
:100FA00020737461727465642E0000002DE9F047AF
:100FB000C7880446181D16468946B0FBF7F1B0FBFA
:100FC000F7F207FB12009A193A44D21CB2FBF7F26F
:100FD000DDF820A001E02468491E0029FBD13D1A5C
:100FE0008846B54216D818E0BAF1000F05D021188E
:100FF00009EB08002A46091D04E0204409EB08011A
:101000002A46001DFFF78EF900202468761BA844AD
:10101000B74201D9354600E03D46002EE4D1BDE897
:10102000F087000030B5024659B100F0BFFC002146
:10103000074C09E004EB810315685B88AB4202D1E1
:101040001160002030BD491C8142F3D3052030BD22
:10105000BC000020002100F009B8012100F010B808
:1010600008B56A46FFF709F9009808BD08B56A4651
:10107000FFF7E9F808BD08B56A46FFF7CBF808BDE9
:1010800008B56A46FFF7D2F8009808BD08B56A4669
:10109000FFF700F9009808BD70B504460025284602
:1010A000FFF705FD21686268086890420ED9401E6E
:1010B00008600178A38AE26801FB0325227A21688F
:1010C000101AC0B20A79824200D208710020FFF7DC
:1010D000F0FC284670BD70B505460C460020FFF7B1
:1010E000E6FCE868A98A201AB0FBF1F12A681068CA
:1010F000431C13600170BDE870400020FFF7D9BCAD
:1011000010B530B1017A42680368891AC9B21A6011
:1011100006E00E2010BD03681A68541C1C60117094
:10112000491EC9B2F7D2006800210171084610BDFE
:101130000448017809B18520704701210170002021
:101140007047000008000020F0B5054604781548F7
:1011500089B0164640F82420124A0869121DA2F1EF
:10116000080742F82400487F385520226846FFF7D8
:10117000D9F804942878385C48B10EB10A4A00E0E6
:1011800000226946281D01F0CBF909B0F0BD0EB16F
:10119000064A00E00022694605F10C0001F092F8D1
:1011A000F3E7000010000020D52C0000212B0000E8
:1011B0000FB408B50399002904D004AA00926A4626
:1011C00000F00FF801B05DF814FB10B5826804461A
:1011D000002A05D0D4E90403216898470020A060C4
:1011E00010BD2DE9FC4791460C00804676D014F8DE
:1011F000011B39B125290ED04046FFF73BFD207871
:101200000028F4D198F80C00002867D04046BDE8CB
:10121000FC47FFF7DABF0020012221782B291BD0E1
:101220002D2902D0302908D102E040F0010001E070
:1012300040F00200641C002AEFD100252A290ED0BC
:101240002178A1F130020A2A11D205EB850201EBC7
:101250004205641C303DF1E740F00400EAE7D9F8AC
:1012600000100B1DC9F800300968641C0D4421787A
:1012700000232E290BD114F8011FA1F130020A2AF4
:1012800005D203EB830201EB4203303BF3E76C2909
:101290000DD068290BD0692921D00BDC252918D065
:1012A000582931D063290ED0642915D117E014F8DC
:1012B000011FECE7702969D0732932D075291BD042
:1012C000782909D120E0D9F80000011DC9F80010E3
:1012D00001784046FFF7CEFC641C90E76CE0D9F83B
:1012E00000100A1DC9F800200968CDE900500A2243
:1012F0004046FFF7E3FCEFE7D9F800100A1DC9F8F4
:10130000002009680A2206E0D9F800100A1DC9F871
:10131000002009681022CDE90050404601F06CFD24
:10132000DAE7D9F8001000270A1DC9F800200E6876
:10133000C00705D112E04046761C7F1CFFF79AFCDF
:1013400031780029F7D104E0202140466D1EFFF7D7
:1013500091FCBD42C0D9002DF6D1BDE74EB130465B
:10136000FFF704F8074604E0202140466D1EFFF712
:1013700081FCBD4206D9002DF6D103E04046761C23
:10138000FFF778FC31780029F8D1A5E7D9F80000FB
:10139000011DC9F80010056830214046FFF76AFCBE
:1013A00078214046FFF766FC08200021CDE90001C6
:1013B000034610222946B0E7BDE8FC8770B541EA34
:1013C0004201DDE904564FF0A04441EA830141EABD
:1013D000052104EB800041EA0641C0F8001770BD0A
:1013E00070B541EA4201DDE904564FF0A04441EAFC
:1013F000830141EA052104EB800041EA0641C0F87F
:10140000001770BD1CB5002100910B46012201910F
:10141000FFF7D4FF1CBD1CB5002100910B46012233
:101420000191FFF7DDFF1CBD1CB500220B460092A9
:1014300011460192FFF7C2FF1CBD1CB500220B46EE
:10144000009211460192FFF7CBFF1CBD1CB5002195
:1014500000910B46012201911146FFF7AFFF1CBD21
:101460001CB5002100910B46012201911146FFF7A6
:10147000B7FF1CBD30B5124B01460020D3F8104415
:10148000224609E0157A854205D1401C0A28F7DB7F
:101490004FF0FF3030BD5268002AF3D1421CF9D022
:1014A0000872D3F810242AB152684A60D3F8102485
:1014B000516030BD0022C3F810144A6030BD0000F6
:1014C000F80200207047FFF717B8704708B5034AC5
:1014D00000924023024A00F005F808BDA929000047
:1014E000B8010020F0B595B01C4615460F460846D9
:1014F0001A9E00F02BFB182109A8FEF72CFF0E9670
:10150000CDE909540023082203A9384600F033FB33
:1015100005980690BDF81000ADF81C00BDF812004B
:10152000ADF81E0000208DF821000398082600F079
:101530000300012802D0022818D032E00398334675
:10154000850AC0F3C2008DF8200003980FA9C0F3EC
:101550008314A200384600F00EFB09A8009006ABE9
:1015600022460FA9284600F04DFA1AE00398840D90
:10157000C0F3C2008DF82000082C01D2254600E0FF
:10158000082533462A460FA9384600F0F4FA2E44BF
:10159000641B09AB06AA29460FA800F085F9002CA8
:1015A000EAD1384600F0D8FA15B0F0BD70470120F6
:1015B00001F0D4BA084810B50178084A515C19B155
:1015C000001D01F039F802E00C3000F047FFBDE8E3
:1015D0001040002001F0C2BA3C0000200C000020A6
:1015E00008B5034A00924023024AFFF77BFF08BD7B
:1015F000F9290000F80100200A4A012902EBC00085
:1016000007D0022907D0032907D0042907D00020DA
:101610007047022070470420704700797047407976
:1016200070470000BC36000010B5FFF74CFF0421E6
:101630000848FFF71FFF074801244472FFF7B7FF70
:10164000044804210C30FFF715FF02480C304472A7
:1016500010BD0000500000202DE9F0478CB0FFF7CE
:1016600019FB18B100200CB0BDE8F087784C0020C1
:10167000C4F81804BFF34F8F60680290A5684FF05C
:101680000008284004EB800008E0216802988142AD
:1016900001D86160E6E7284004EB80000C3002A925
:1016A000FFF7A0FB0028F0D103AB029901EA050285
:1016B00004EB8202491CD26843F82020401C0291AE
:1016C0000228F2D3039800F00300022802D0012878
:1016D0004ED0A5E003985022810D8946B2EB905F71
:1016E00000D850210E4666F39F50039008315948A8
:1016F00000F0E3F9070078D000F028FA434608220A
:1017000003A9384600F03DFA029908F1080A294079
:10171000681A8000001D864223D94D4D0C3530B12A
:10172000C2B204EB8101301A90460C3104E0294624
:10173000F2B2002590462846C6B25346384600F01D
:1017400020FA0AEB08032DB1324629464FEA07007A
:1017500000F017FA029909F1030001EB90000290E2
:101760003AE004EB81015346324638460C31EFE74C
:101770000398C0F38311062900D3062161F3891071
:101780000390C0F38310801C8100324800F095F96B
:10179000070045D000F0DAF94346082203A938468D
:1017A00000F0EFF908F1080800260FE00298434620
:1017B00000EA0501401C04EB810102900422384636
:1017C0000C3100F0DEF908F10408761C0398C0F330
:1017D0008310B042EAD847B1D4F81054D4F81804B2
:1017E00068B1384600F0B8F92CE019E0687A0128B1
:1017F00004D12A6828463946126890476D68002D42
:10180000F4D1384600F0A8F90020FFF750F9D4F8D9
:10181000180408B9029860600020FFF74AF911E047
:10182000D4F8104404E02168204689688847646839
:10183000002CF8D108480221008801EB004007A1E4
:1018400000F016F8FFF726FA80F001000BE7000021
:10185000F8020020FC360000D80000204261636BD3
:10186000656E647320666C757368656400000000C3
:1018700000231A4601F0E0B808B5012300926A4639
:1018800001F0DAF808BD1CB5CDE9002302236A4651
:1018900001F0D2F81CBD3EB5069C8DE81C00032368
:1018A0006A4601F0C9F83EBD2DE9F0470E46804674
:1018B0001C46924608293ED894F80C9000202073CC
:1018C0001946104600F02EFF0025B54206D218F842
:1018D00005201AA12046FFF76BFC03E019A1204662
:1018E000FFF766FC6D1C082DEFD317A12046FFF70C
:1018F0005FFC0025B54210D218F80570FEF70EFD0A
:101900000068C05D10F03E0F01D03A4600E02E2284
:101910000EA12046FFF74CFC03E00DA12046FFF787
:1019200047FC6D1C082DE5D301222146504600F0EE
:10193000DBFE84F80C90BDE8F087000020253032F3
:1019400078000000202020007C00000025630000BB
:1019500020000000104810B5FF21816000210160C7
:101960004160C0F81814C0F8141480F820140B4813
:1019700000F0F0F800280DD109480A490A4B401A36
:10198000C108002003E000BF23F82000401C88426B
:10199000FAD3002010BD0000F8020020FC36000041
:1019A000FC360000BC360000BC00002002480349A1
:1019B000401AC00870470000FC360000BC3600002A
:1019C00013B56846FFF72EFB08B100201CBD024886
:1019D000009950F831001CBDBC36000070B50848B5
:1019E0000125D0F8104480F8205405E06572216884
:1019F0002046496888476468002CF7D170BD000014
:101A0000F80200202DE9FF4781460C9D00200C467E
:101A10002F7B2873984616462946184600F082FE0A
:101A2000072E42D2DFE806F004090F161F2A3600FF
:101A300049462846FFF7BCFB37E04946284622685E
:101A4000FFF7B6FB31E0D4E9002349462846FFF70B
:101A5000AFFB2AE0A0680090D4E90023494628465D
:101A6000FFF7A6FB21E0D4E90201CDE90001D4E9AA
:101A7000002349462846FFF79BFB16E004F10800C7
:101A800007C88DE80700D4E9002349462846FFF738
:101A90008FFB0AE004F108000FC88DE80F00D4E9BD
:101AA000002349462846FFF783FB0022294640468B
:101AB00000F01AFE2F73BDE8FF872DE9F041858AFB
:101AC00080462D1F4819C01CB0FBF5F0C6B2404639
:101AD000FFF7E2FA041E19D0002020710120607186
:101AE000E58000272546761EC4F800800BE04046BE
:101AF000FFF7D2FA60B16179491C6171286005462F
:101B00007F1CC0F80080B742F1D32046BDE8F081C9
:101B1000204600F002F80020F8E72DE9F041457971
:101B200001466B1E002201E00968521C9A42FBD359
:101B30000F680146002605E038460C68FFF7CBFA2F
:101B40002146761CAE42F7D3BDE8F0810121001D8D
:101B5000FFF786BAFFF7D4BA10B504460121001D7D
:101B6000FFF794FA10F0FF0F04D12046BDE81040B3
:101B7000FFF7D3BF10BD38B501240094FFF716FA64
:101B800038BD38B500240094FFF710FA38BD0000C6
:101B9000064910B500204870091D0860BFF35F8F2B
:101BA0000349044800F046F8002010BD2C00002036
:101BB0002C300000AC01002010B50020FEF777FFAC
:101BC000F1EE100A20F09F00E1EE100ABFF35F8FE4
:101BD00005494020C1F880020020FEF76AFF20BFBF
:101BE00040BF20BF10BD000004E000E0024A1060CA
:101BF000101D0160704700002C760040030103486F
:101C00001844C0F81425C0F8101570470070004043
:101C100002494058002800D0012070470070004061
:101C2000034908B50844002202600068009008BD1E
:101C300000700040016009684160AFF3008010B59A
:101C4000D0E900215368994201D1002104E0D1E993
:101C50000034A34202D01946816010BD08314160B2
:101C6000F0E700000C4A10B502F58C730EE0991AEB
:101C7000C91001EBD171491002EBC1010C6884421B
:101C800001D90B4602E005D201F108029A42EED3D7
:101C9000002010BD486810BD4C30000000B5FFF7B3
:101CA000E1FF002800D1014800BD000038300000ED
:101CB00008B5002242504058009008BD4058002806
:101CC00000D00120704708B50022425040580090D3
:101CD00008BDD0F80403084000D0012070474058E8
:101CE000002800D00120704708B50022425040581B
:101CF000009008BD0121B1EB507F01D10120704758
:101D0000002070472DE9F05F0427204EDFF8809017
:101D1000834600244FF0030A4FF001080020FEF72D
:101D2000C6FE08FA04F5354203D02046FFF7A4F8B2
:101D3000B8B10020FEF7BDFEFFB104F10104AE43CF
:101D4000E4B2EBD13846FFF7A9FFB9F8001003461B
:101D50000AEB01400F4A10A1FFF795FD3846BDE898
:101D6000F09F154908FA04F000274A6810434860BC
:101D70008BF800403846FEF79CFEB9F8001022466A
:101D80000AEB01400DA1FFF777FDDBE7FFFF0F0036
:101D9000D8000020C92E000046756E6374696F6E0E
:101DA0003A2025732C206572726F7220636F646510
:101DB0003A2025732E00000018000020416C6C6F43
:101DC0006361746564206368616E6E656C3A20259A
:101DD000642E00002DE9F84314460D0081462CD0F6
:101DE000002C2AD00026FFF753F8174F4FF00308B6
:101DF000002824D04846FFF73FF8002821D0134898
:101E000000EBC900C0F81055C0F81445009439889B
:101E10002B4608EB01404A460DA1FFF73CFD30463A
:101E2000FFF73CFF3988034608EB0140184A19A127
:101E3000FFF729FD3046BDE8F8830E20FBE70726B3
:101E4000EDE70826EBE70000D800002000F0014095
:101E500041737369676E6564206368616E6E656C5B
:101E60003A2025642C206576656E7420656E6420AA
:101E7000706F696E743A2025782C207461736B2022
:101E8000656E6420706F696E743A2025782E0000AC
:101E9000F62E000046756E6374696F6E3A202573E6
:101EA0002C206572726F7220636F64653A2025730F
:101EB0002E00000070B5044601260025A640FEF75E
:101EC000E7FF18B12046FEF7D7FF80B1094806604A
:101ED0002846FFF7E3FE034607480321074A008828
:101EE00001EB004006A1FFF7CEFC284670BD082597
:101EF000EEE7000004F50140D80000202B2F000081
:101F000046756E6374696F6E3A2025732C20657276
:101F1000726F7220636F64653A2025732E00000093
:101F200070B50D4600F04AFC04000FD00020FEF70B
:101F3000BEFD207920B10020FEF7BBFD112070BD51
:101F40000120256020710020FEF7B3FD002070BD48
:101F500010B500F033FC002802D0002101600171AF
:101F600010BD00002DE9F041254C064612200D461B
:101F7000C4F808032348017C022918D0027C0146DA
:101F80004FF4807891F82E10012A12D00222C4F862
:101F9000042301270774466005810022C26021B333
:101FA000458390F82D103046FFF720FE25E01220E3
:101FB00002E0C2682AB10220C4F804031120BDE87F
:101FC000F081C660058361B947463846FFF720FEB9
:101FD0000028FAD03846FFF723FE29463046FFF79F
:101FE00005FE0220C4F8040307E029463046FFF747
:101FF000FDFD4046FFF714FE27600020DFE70000EC
:1020000000700040F000002070B505462A480C46DC
:10201000017C09B1112070BD2179284E09B1012937
:1020200001D10021316000EB45010A7F1AB910F897
:102030002D2F521C0270E0790877207A487721789A
:102040006278302301F0030103EA02121143A278FF
:102050004FF4E06303EA02221143E2784FF4805325
:1020600003EA0232114322794FF4E02303EA0242E9
:10207000114362794FF4801303EA02521143A279AB
:102080001B0103EA02620E4B2846114303EB0012C8
:10209000C2F81815227AE179FFF7B0FD227AE179CA
:1020A0002846FFF7ABFD207908B1012801D10120B6
:1020B0003060002070BD0000F0000020007500407E
:1020C000007000402DE9F0411E4C054694F82C00AC
:1020D00010B10820BDE8F08144F8101B1A49287897
:1020E0000860091D68780860E878A07701272777DD
:1020F0000020207060776060144EE0776FF0004041
:10210000C6F808034FF48270FFF78AFDB015FFF799
:1021100087FDA8780E49400181F800048020C91F7E
:10212000C1F88002C1F800010220C6F80403A07FB4
:1021300010B10120C6F804030348F03807600020FE
:10214000C8E70000F0000020F0750040007000407B
:1021500007E000E0044890F82E0008B1002000E0FD
:102160000420024908447047F0000020007000403D
:102170002DE9F04106460D464FF4803400681746BD
:10218000AC404BB14FF4A07101EB8501FFF790FD1E
:102190003068C0F8044301E0C0F80843306800EB41
:1021A0008500C0F84075BDE8F0810000016801229B
:1021B0000A600079034A00EB400002EB8000022134
:1021C0000172704720010020F0B40468049E40F2C0
:1021D0000115D4F800728D40AF43C4F80072046852
:1021E000D4F800521D43C4F800523346F0BCFFF748
:1021F000BFBF00002DE9F04104460E4600792C498E
:1022000000EB400001EB8007387A10B10820BDE8F0
:10221000F0813A60706800254FF4A078786006E09D
:1022200008EB85012068FFF743FD6D1CEDB2607976
:10223000A842F5D82068F178000B40B200284FEA98
:10224000411106DA00F00F0000F1E02080F8141DC3
:1022500003E000F1E02080F8001420680122000B68
:1022600040B200F01F0302FA03F14009800000F1C0
:10227000E020C0F88012C0F8001120687178D0F812
:10228000043561F30103C0F804352068B178D0F853
:10229000083561F30103C0F8083520683178D0F8BB
:1022A000103561F30303C0F810353A720020AEE731
:1022B000200100200149024800F078BC5C010020A8
:1022C000002000402DE9F0410546007916460F46F2
:1022D00000EB40012D4A01EBC00102EB810494F8B0
:1022E0002A1011B10820BDE8F081294951F82010C9
:1022F0002868FFF715FE08B11120F4E73946284693
:10230000FEF7ECFB66603869206030004FF0010694
:102310002FD03F7F4FF48E712868FFF7D4FC4FF425
:10232000A2712868FFF7CFFC28681A49C0F8041387
:1023300028684FEA4711000B40B2002806DA00F087
:102340000F0000F1E02080F8141D03E000F1E02010
:1023500080F800142868000B40B200F01F0206FA53
:1023600002F14009800000F1E020C0F88012C0F8BE
:10237000001128680421C0F800150020A061E06168
:1023800084F8290044F8140FA675ACE75C0100201E
:10239000FC2F0000800002002DE9F047054600797F
:1023A0000B4600EB400101EBC000234901EB800428
:1023B000284600F043F810B11120BDE8F0874FF037
:1023C0000008C4F82080A360626184F828804FF47C
:1023D0008E76474631462868FFF775FC28684FF02F
:1023E0000109C0F808902146286800F07BFB60686E
:1023F00000BBD5F800A00EE094F8280008B10F2724
:1024000016E031465046FFF759FC0028F4D021462B
:10241000504600F067FB216A60698142F1D3314682
:102420002868FFF74BFC0028F9D02868C0F80C900A
:10243000C4F814803846C0E75C010020007900EB46
:10244000400101EBC000044901EB80004069002815
:1024500000D00120704700005C0100202DE9F0470A
:10246000044600794FF0000900EB400101EBC00089
:10247000254901EB80072068C0F80095786880B195
:1024800020682249C0F8081320680121000B40B2DF
:1024900000F01F0291404009800000F1E020C0F8E8
:1024A00080112068D0F80C25D0F81485D0F8086584
:1024B000D0F810554FF0FF31C0F81415C0F80C15C6
:1024C0002068C0F80815C0F81015501C02D010463E
:1024D000FEF798FFB8F1FF3F02D04046FEF792FFAB
:1024E000681C02D02846FEF78DFF701C02D03046D3
:1024F000FEF788FF2068FFF72BFD87F82A90C7F8C2
:102500000490BDE8F08700005C0100208402020016
:102510000149024800F0F6BB88010020002000407D
:102520002DE9F0410546164600790F46154A00EBA5
:10253000C00102EB810494F8201011B10820BDE81D
:10254000F081114951F820102868FFF7E9FC08B123
:102550001120F4E739462846FEF704FB6660386927
:1025600020601EB1397F2846FEF7FCFB2868082151
:10257000C0F800150020A061E0610121606184F8CD
:102580002010DCE788010020003000002DE9F04732
:1025900004460E460079204900EBC00001EB80059F
:1025A00017463046FFF7A6FB30B1204600F036F85C
:1025B00020B11120BDE8F0871020FBE76F61AE600D
:1025C0004FF49076002731462068FFF78DFB4FF4DB
:1025D000AC7841462068FFF787FB2068AA686969E4
:1025E000C0F84425C0F8481520680121816068685A
:1025F00078B9B14649462068FFF771FB0646414667
:102600002068FFF76CFB0643F4D000B10F270020D1
:1026100068613846CEE7000088010020007905494E
:1026200000EBC00001EB80004069002800D00120D1
:1026300070470000880100202DE9F047044600792A
:10264000274900EBC00001EB800720684FF000092C
:10265000C0F80095786880B120682249C0F8081356
:1026600020680121000B40B200F01F029140400998
:10267000800000F1E020C0F880112068D0F80C251F
:10268000D0F81485D0F80865D0F810554FF0FF3118
:10269000C0F80C15C0F814152068C0F80815C0F86B
:1026A0001015501C02D01046FEF7B5FEB8F1FF3FE2
:1026B00002D04046FEF7AFFE681C02D02846FEF767
:1026C000AAFE701C02D03046FEF7A5FE2068FFF778
:1026D0003FFC87F82090C7F80490BDE8F087000021
:1026E000880100201003020010B50C46017A05296C
:1026F00008D0407A38B1084808A102682046FEF7A1
:1027000057FD00E01AB106A12046FEF751FD204614
:10271000BDE81040FEF759BD94000020257300006D
:102720000D0A000038B5C3880D46044633B114A025
:10273000009015A216A12846FEF73AFD217A052938
:102740001CD0607A48B1A088FEF756FF164951F8B0
:10275000202016A12846FEF72BFDA0880021FFF7B8
:102760002FF903461049207A143951F8202001B07E
:102770002846BDE830400EA1FEF71ABD38BD000066
:102780001B5B306D000000001B5B313B33316D0083
:1027900025734C6F67732064726F707065642028B6
:1027A00025642925730D0A0094000020257300007C
:1027B0003C25733E2025733A2000000003498842DF
:1027C00001D10348704700207047000000200040FE
:1027D0002000002070B5054688690C4600284FF49B
:1027E000847128460AD0FFF76EFAD5F81805626A98
:1027F000E1688854606A401C606270BDFFF763FA4C
:10280000D5F8180570BD1FB501238DF80030CDE94E
:102810000121D0E90012684690471FBD1FB5012372
:102820008DF800308DF808100192D0E9001268464A
:1028300090471FBD2DE9F04105460078002824D1BE
:1028400005216868FFF78EFB08B1FEF725F9104FE8
:10285000DFF84080032638880FA106EB0040D8F847
:102860000420FFF709F80024686811A130F914204A
:10287000388806EB0040FEF7FFFF641C052CF3DBF5
:10288000D8F80410491CC8F80410BDE8F081000015
:10289000D800002000000020414443206576656E8A
:1028A00074206E756D6265723A2020256400000008
:1028B000256400000EB50E4A07CA8DE807000C48D3
:1028C0000C491438FFF7FEFB08B1FEF7E5F869463E
:1028D0000020FFF799FB08B1FEF7DEF80521064856
:1028E000FFF740FB002801D0FEF7D6F80EBD000030
:1028F000C02E000035280000DC000020054810B57F
:102900000078FFF7D7FA002803D0BDE81040FEF7A3
:10291000C3B810BD000000203EB5FEF709FC08B1A9
:10292000FEF7BAF81C491D4AD1E90301CDE90101BE
:1029300003208DF80600184801A9001DFFF75AFC76
:1029400008B1FEF7A9F8144C241D2068D0F8100532
:10295000134A0123C2400020014600902046FFF7A1
:1029600033FC2046FFF722FC246804F5A074FFF72F
:10297000F1FB05460B48FFF7C5F908B1FEF78CF8E7
:1029800008482A4621460078FFF724FA002801D09B
:10299000FEF782F83EBD0000AC2E0000C52A000004
:1029A00000350C00000000202DE9F041140088469D
:1029B00018D000250E4F032608EB05012246002003
:1029C000FDF79CFD0544241A40B93878002809D049
:1029D00008494FF47A408847761E05D001203870A8
:1029E000002CE9D1BDE8F08100203870FAE7000042
:1029F000340000207131000070B50D4C0020D2B2BF
:102A00002070201D0B4D0378EB5C1BB1001DFFF700
:102A1000BDFD02E00C30FFF7BFFC08B1FEF73CF84B
:102A20006078002802D021780029FAD070BD00001B
:102A3000380000200C0000202DE9F84F204D924670
:102A4000894606469846012269461846AF68FEF751
:102A5000CDF858B3009800210446801C09E000BF5F
:102A600000EA07035AF8212005EB8303401C491CA8
:102A7000DA604145F4D34FEA164AFEF715F94AEAFF
:102A80000041601C384005EB80003C4005EB8402AF
:102A9000C160D06866F3C50068F3891069F39F20B0
:102AA00020F00300401C20F00400D06095F82004C2
:102AB00002E000BFFEF7D0FD0028FBD1BDE8F88F93
:102AC000F802002003480321008801EB004002A126
:102AD000FEF7CEBED800002074696D657220656E69
:102AE0007465720070B50C4605464FF48E71FFF7A1
:102AF000EAF8216AA068415C206A401C2062C5F89F
:102B00001C1570BD1FB500228DF800200291816850
:102B100001914261D0E90012684690471FBD000054
:102B20001FB50A4601788DF8001041680191017ABD
:102B30008DF80810C0680390044850F82210001F58
:102B400050F82220684690471FBD00001400002066
:102B500001490120087070473800002010B588B086
:102B6000044620220E496846FDF7DCFB0620009053
:102B7000C01F0190029003904FF0EB7006900CB1D3
:102B8000084A00E0002269460748FEF7DDFA08B16E
:102B9000FDF782FF0448001F447008B010BD00001C
:102BA00084310000512B00003C0000202DE9FF473C
:102BB0000C4605464FF40071FFF78BF801274FF4E0
:102BC0000178002618B34FF4927949462846FFF75A
:102BD00075F8E0B149462846FFF775F8C5F808834F
:102BE00094F8290000B96F6002208DF80000D5F834
:102BF0008004C5F880040390A0690290E068019009
:102C0000A661E661D4E900126846904728E00421F5
:102C10002846FFF75EF818B34FF484712846FFF793
:102C20004DF8E8B121462846FFF7D4FD616AA06956
:102C3000884215D1E06938B1E268616AA061206913
:102C4000E6616662E06008E094F8290000B96F6010
:102C5000C5F80883A661E268616A2046FFF7D3FDE4
:102C60004FF48E7841462846FFF728F878B1206A5D
:102C70006169884202D294F8280020B34146284670
:102C8000FFF721F8616911B12046FFF73BFF4FF4D0
:102C9000A27841462846FFF711F8002818D041468F
:102CA0002846FFF710F894F8290000B12F60A069BA
:102CB00000280DD0A661E268616A04B02046BDE834
:102CC000F047FFF7A0BD21462846FFF70BFFDEE7E0
:102CD000BDE8FF871FB50A4601788DF800104168EE
:102CE0000191017A8DF80810C0680390044850F8EB
:102CF0002210001F50F82220684690471FBD000098
:102D0000140000202DE9FF410C464FF49277054650
:102D10003946FEF7E4FF0026C0B139462846FEF7E3
:102D2000E3FF02208DF80000D5F88004C5F8800488
:102D30000390D5F83C058DF80800E0680190A66185
:102D4000E661D4E900126846904723E04FF48877A3
:102D500039462846FEF7C3FFE0B139462846FEF75C
:102D6000C3FFD5F83C15A069884213D1E06960B172
:102D7000E268D5F8000220F02000C5F80002E06902
:102D8000A0612069E661E06001E0A661E26820469A
:102D9000FFF744FD4FF4A27739462846FEF79FFF20
:102DA00060B139462846FEF79FFFA06930B1A661A1
:102DB000D5F83C152046E268FFF730FD4FF49077D8
:102DC00039462846FEF78BFF002813D0394628469F
:102DD000FEF78AFF606900280CD0D5F84C058DF805
:102DE00000608DF80800A06801906661D4E90012C7
:102DF00068469047BDE8FF812DE9F05F8346DDE935
:102E00000A4A994690460D460846012703E000BF4E
:102E1000B0FBF8F07F1C4045FAD2B94500D94F46C7
:102E20005FEACA7012D18CB15FEA8A7002D5B9F13B
:102E3000000F01D0202607E0302605E03146584635
:102E4000641EFDF717FF0CB1A742F7D35FF0010630
:102E5000B9F1010F02D9A9F1010903E0B5FBF6F0C0
:102E6000404502D306FB08F6F2E7DFF83C9000BFCE
:102E7000B5FBF6F000FB165519F800105846FDF7A3
:102E8000F9FEB6FBF8F6002EF2D15FEACA7009D05F
:102E9000002C07D0A74205D220215846641EFDF71A
:102EA000E9FEF5E7BDE8F09F0430000001000700EF
:102EB00000A0004002040000000000070000000025
:102EC0000000000002000007006E7266785F7070FC
:102ED000695F6368616E6E656C5F616C6C6F6300E7
:102EE0006E7266785F7070695F6368616E6E656C44
:102EF0005F66726565006E7266785F7070695F63A9
:102F000068616E6E656C5F61737369676E006E7287
:102F100066785F7070695F6368616E6E656C5F662E
:102F20006F726B5F61737369676E006E7266785F54
:102F30007070695F6368616E6E656C5F656E61621B
:102F40006C65006E7266785F7070695F6368616E51
:102F50006E656C5F64697361626C65006E72667841
:102F60005F7070695F67726F75705F616C6C6F63C3
:102F7000006E7266785F7070695F67726F75705F00
:102F800066726565006E7266785F7070695F677201
:102F90006F75705F656E61626C65006E7266785FFA
:102FA0007070695F67726F75705F64697361626C7E
:102FB00065006E7266785F7070695F6368616E6EDF
:102FC000656C735F72656D6F76655F66726F6D5F5E
:102FD00067726F7570006E7266785F7070695F639C
:102FE00068616E6E656C735F696E636C7564655F56
:102FF000696E5F67726F757000000000B522000097
:1030000011250000303132333435363738394142FA
:10301000434445460000000000000000000000009E
:10302000000000000000000000000000143000005C
:103030002C30000004000000556E6B6E6F776E2020
:103040006572726F7220636F64650000000000009B
:103050009035000001000000503400000200000024
:103060004432000003000000C434000004000000EB
:103070001835000005000000F833000006000000CD
:103080009433000007000000003500000800000035
:103090000C34000009000000703400000A00000039
:1030A000783500000B0000002C3200000C000000FE
:1030B000243400000D000000C83500000E000000A0
:1030C000F03400000F0000002C350000100000005C
:1030D0006035000011000000DC35000080000000B9
:1030E000AC33000081000000E832000082000000E4
:1030F000A832000083000000883200008400000035
:10310000C432000085000000D033000086000000BB
:10311000D8340000900000007433000091000000DB
:103120006832000092000000383400000082000085
:1031300040350000018200008C3400000282000053
:10314000A834000000840000043300000184000063
:103150009C350000028400004C3300000384000012
:1031600028330000CD140000CB140000C51400006B
:103170000338FDD870470000E1150000B5150000C8
:10318000AD150000FFFFFFFFFFFFFFFFFFFFFFFF89
:10319000FFFFFFFF00000000000000000000D6015C
:1031A0000701000000404040404040404040414155
:1031B000414141404040404040404040404040400C
:1031C00040404040400502020202020202020202A6
:1031D00002020202022020202020202020202002A3
:1031E0000202020202029090909090901010101033
:1031F00010101010101010101010101010101010CF
:103200000202020202028888888888880808080862
:10321000080808080808080808080808080808082E
:103220000202020240000000A53100004E52465F3B
:103230004552524F525F494E56414C49445F4441BA
:10324000544100004E52465F4552524F525F534F19
:1032500046544445564943455F4E4F545F454E41A1
:10326000424C4544000000004E52465F4552524FCA
:10327000525F464541545552455F4E4F545F454E4F
:1032800041424C45440000004E52465F4552524F69
:10329000525F4D555445585F554E4C4F434B5F461A
:1032A00041494C45440000004E52465F4552524F42
:1032B000525F4D555445585F4C4F434B5F46414913
:1032C0004C4544004E52465F4552524F525F4D5559
:1032D0005445585F434F4E445F494E49545F464101
:1032E000494C4544000000004E52465F4552524F43
:1032F000525F4D555445585F494E49545F464149C8
:103300004C4544004E52465F4552524F525F424C2C
:10331000455F495053505F52585F504B545F545271
:10332000554E4341544544004E52465F4552524F1C
:10333000525F424C455F495053505F504545525F84
:1033400052454A4543544544000000004E52465FF2
:103350004552524F525F424C455F495053505F4C6B
:10336000494E4B5F444953434F4E4E4543544544A9
:10337000000000004E52465F4552524F525F41508E
:10338000495F4E4F545F494D504C454D454E544555
:10339000440000004E52465F4552524F525F4E4F1E
:1033A000545F535550504F52544544004E52465F5F
:1033B0004552524F525F4D4F44554C455F4E4F540E
:1033C0005F494E495449414C495A45440000000068
:1033D0004E52465F4552524F525F4D4F44554C45F9
:1033E0005F414C52454144595F494E495449414C13
:1033F000495A4544000000004E52465F4552524F24
:10340000525F4E4F545F464F554E44004E52465FFA
:103410004552524F525F494E56414C49445F5354B6
:10342000415445004E52465F4552524F525F44410F
:1034300054415F53495A45004E52465F4552524FE0
:10344000525F494F5F50454E44494E4700000000CF
:103450004E52465F4552524F525F5356435F48416A
:103460004E444C45525F4D495353494E470000006E
:103470004E52465F4552524F525F494E56414C495B
:10348000445F4C454E475448000000004E52465F92
:103490004552524F525F4452565F5457495F45520E
:1034A000525F414E41434B004E52465F4552524F90
:1034B000525F4452565F5457495F4552525F444EE3
:1034C00041434B004E52465F4552524F525F494E68
:1034D0005445524E414C00004E52465F4552524FA9
:1034E000525F53544F524147455F46554C4C000084
:1034F0004E52465F4552524F525F4E554C4C000063
:103500004E52465F4552524F525F494E56414C49CA
:10351000445F504152414D004E52465F4552524F1A
:10352000525F4E4F5F4D454D000000004E52465FCA
:103530004552524F525F464F5242494444454E0015
:103540004E52465F4552524F525F4452565F545757
:10355000495F4552525F4F56455252554E0000004A
:103560004E52465F4552524F525F494E56414C496A
:10357000445F4144445200004E52465F4552524F10
:10358000525F494E56414C49445F464C41475300B7
:103590004E52465F53554343455353004E52465F88
:1035A0004552524F525F424C455F495053505F4322
:1035B00048414E4E454C5F414C52454144595F4550
:1035C00058495354530000004E52465F4552524FE3
:1035D000525F54494D454F55540000004E52465FCE
:1035E0004552524F525F4255535900007761726EF7
:1035F000696E670064656275670000001B5B313BA4
:1036000033306D001B5B306D000000001B5B313BF5
:1036100033316D001B5B313B33326D001B5B313B43
:1036200033336D001B5B313B33346D001B5B313B2F
:1036300033356D001B5B313B33366D001B5B313B1B
:1036400033376D00696E666F000000006572726F3F
:1036500072000000505253005341414443000000A7
:1036600054494D455200000055415254000000009D
:1036700055415254450000007077725F6D676D745C
:103680000000000062616C6C6F632E6C6F675F6D91
:10369000656D706F6F6C0000617070001437000012
:1036A00000000020DC000000FE090000F0370000F0
:1036B000DC000020CC2800000E0A00005436000078
:1036C00000000000583600000000000060360000D6
:1036D00000000000683600000000000070360000A6
:1036E0000000000078360000000000008436000072
:1036F0000000000398360000000003037000002063
:10370000680000207000002038020020D400002053
:103710001800000000000000000000000000000091
:103720000000000000000000000000000000000099
:103730000000000000000000000000000000000089
:103740000000000000000000000000000000000079
:1037500000000000002000400000000000200040A9
:1037600000000000643100000000000000000000C4
:1037700078310000000000000000000000000000A0
:103780000000000000000000000000000000000039
:1037900000000000000000004C360000EC35000086
:1037A00044360000F435000004360000FC3500000B
:1037B0000C360000143600001C36000024360000D1
:1037C0002C360000343600003C3600000090D00358
:1037D00000000000000000000000000000000000E9
:1037E00000000000000000000000000000000000D9
:0400000500000201F4
:00000001FF
