:020000040002F8
:1060000090BC0020DD630200E5630200E76302004C
:10601000E9630200EB630200ED6302000000000090
:10602000000000000000000000000000EF6302001C
:10603000F163020000000000F3630200F563020058
:10604000DD680200F7630200B96F0200016B020015
:10605000F7630200F7630200156702005969020046
:10606000556F0200696F02007D6F0200F763020046
:10607000F7630200F7630200F7630200F7630200B0
:10608000F763020035690200F7630200F76302005C
:10609000556B0200F7630200596B0200F7630200C0
:1060A000F7630200F7630200916F0200A56F020020
:1060B000F7630200F7630200000000000000000028
:1060C000F7630200F7630200F7630200F763020060
:1060D000F7630200F7630200F763020000000000AC
:1060E00000000000000000000000000000000000B0
:1060F00000000000000000000000000000000000A0
:10610000000000000000000000000000000000008F
:10611000000000000000000000000000000000007F
:10612000000000000000000000000000000000006F
:10613000000000000000000000000000000000005F
:10614000000000000000000000000000000000004F
:10615000000000000000000000000000000000003F
:10616000000000000000000000000000000000002F
:10617000000000000000000000000000000000001F
:10618000000000000000000000000000000000000F
:1061900000000000000000000000000000000000FF
:1061A00000000000000000000000000000000000EF
:1061B00000000000000000000000000000000000DF
:1061C00000000000000000000000000000000000CF
:1061D00000000000000000000000000000000000BF
:1061E00000000000000000000000000000000000AF
:1061F000000000000000000000000000000000009F
:10620000DFF80CD000F0ECF900480047D19A02000A
:1062100090BC002000B583B002900091019244F23E
:10622000010071466A4601F053F903B000BD000059
:1062300030B450E8012F93B2C48923448489A34227
:1062400028BF1B1B0489A34202BFBFF32F8F00206E
:1062500007E0C3EA020340E80134002CE9D14FF023
:1062600001000A6030BC704750E8012FC2EA0242C8
:1062700040E801210029F7D1704730B450E8022FDF
:106280001FFAA2F3C488A34202BFBFF32F8F0020DE
:106290000DE0C48923448489A34228BF1B1BC2EAA2
:1062A000034340E80234002CE8D14FF001000A60BB
:1062B00030BC704750E8022FC2EA224240E8022177
:1062C0000029F7D17047034653E8022FD988B2EB73
:1062D000324F4FF0000017BF92B241EA014142EA4B
:1062E000014104E05A68B2EB324F08BF012043E895
:1062F0000212002AE8D1704730B4044654E8000F77
:106300000D4644E80053002BF8D1156030BC7047AF
:1063100030B4044654E8000F40EA010544E8005355
:10632000002BF7D1156030BC704730B4044654E8F8
:10633000000F00EA010544E80053002BF7D1156077
:1063400030BC704730B4044654E8000F80EA0105C1
:1063500044E80053002BF7D1156030BC704730B4CF
:10636000044654E8000F00EB010544E80053002BFD
:10637000F7D1156030BC704730B4044654E8000FC4
:10638000A0EB010544E80053002BF7D1156030BCA9
:10639000704770B404464FF0000054E8006F0D6879
:1063A000AE4207BF44E80023012044E800630E60CA
:1063B000002B1CBF0020F0E770BC704730B40446CF
:1063C00054E8000F88422CBF451A054644E80053A4
:1063D000002BF5D1156030BC70470000064880479F
:1063E00006480047FEE7FEE7FEE7FEE7FEE7FEE7BA
:1063F000FEE7FEE7FEE7FEE7396C020001620200FD
:106400002DE9F05F0546002092469B4688460646E9
:10641000814640241BE0284641464746224600F07C
:1064200096F853465A46C01A914110D31146184661
:10643000224600F016F82D1A67EB01084F46224657
:106440000120002100F00DF817EB00094E41201E3D
:10645000A4F10104DFDC484631462A464346BDE844
:10646000F09F202A04DB203A00FA02F10020704756
:106470009140C2F1200320FA03F319439040704782
:1064800000487047C0DC020040EA01039B0703D0CC
:1064900009E008C9121F08C0042AFAD203E011F863
:1064A000013B00F8013B521EF9D27047D2B201E025
:1064B00000F8012B491EFBD270470022F6E710B509
:1064C00013460A4604461946FFF7F0FF204610BD62
:1064D000421C10F8011B0029FBD1801A70470346AB
:1064E00011F8012B00F8012B002AF9D1184670474A
:1064F00070B50F4D00B92868002412E00A4602E08A
:106500009E4203D0521C1378002BF9D1DAB22243F9
:1065100005D02BB124B1002100F8011B04E0044692
:10652000401C0678002EE9D12860204670BD00008E
:10653000202D002070B5064600F0E2FD04680546F7
:106540000A220021304600F012F82C6070BD202A8B
:1065500004DB203A21FA02F00021704721FA02F30D
:10656000D040C2F1200291400843194670472DE9FE
:10657000F04791460F4680460446002614F8015B1A
:106580002DB1FFF77DFF0068405DC007F6D12B2DD0
:1065900002D02D2D18D0641E4A463946204600F000
:1065A00031F827B13968A14201D1C7F800807105DF
:1065B0004FF002040BD54042002803DD00F0A0FD9F
:1065C0000460A007BDE8F08746F48066E4E7002891
:1065D000F8DA00F095FD04606FF00040F2E700008B
:1065E000064C074D06E0E06840F0010394E8070020
:1065F00098471034AC42F6D3FFF706FEE8E40200F9
:1066000008E502002DE9F05F824600780027154674
:106610008B460AF10104B946302801D09DB113E040
:1066200014F8010B0127782803D0582801D045B170
:106630000AE00DB1102D07D10027102514F8010B29
:1066400002E0082500E00A250026B0460EE005FB22
:10665000080005FB06F1012701EB10461FFA80F840
:10666000B6F5803F00D3B94614F8010B294600F077
:1066700018F80028EBDABBF1000F05D00FB1641E4B
:1066800000E05446CBF80040B9F1000F06D000F00E
:1066900037FD02210160C81EBDE8F09F48EA0640B0
:1066A000FAE73A2800D2303820F02002412A01D3FC
:1066B000A2F13700884201D34FF0FF30704770B528
:1066C0008C1810F8015B15F0070301D110F8013B9D
:1066D0002A1106D110F8012B03E010F8016B01F824
:1066E000016B5B1EF9D12B0705D40023521E0DD47C
:1066F00001F8013BFAE710F8013BCB1A921C03E0CA
:1067000013F8015B01F8015B521EF9D5A142D8D301
:10671000002070BD2DE9F04700268AB0DFF85091C7
:10672000B0464FF48075012437460696284604F09B
:10673000E7F838B1D9F80403204203D0284604F022
:10674000D5F826432D1D64007F1CADB2082FEDD374
:106750004FF4BE74204604F0D3F848B1204604F04C
:10676000C5F846F0004606AA0121002004F0AAF868
:10677000404D16F0FF0F15D00127002437420DD0F1
:1067800009EB8401D1F81005D1F81015C0F30420ED
:1067900055F82420C1F3014102B190477F00641CE9
:1067A000082CEBD3002E5FDA4FF0FF30CDF81080CD
:1067B00054E0281910F8507F90F9000027F0C00825
:1067C000401C3BD007A9404603F0E0FB10B34FEA62
:1067D0009719404602F0DAFB55F820701FB1B9F165
:1067E000030F03D006E0B9F1030F27D104A94046F7
:1067F00003F0D4FB4FF0A04101EB8800D0F8000774
:1068000006A9C0F3014A404603F0C0FB18B1BAF133
:10681000020F03D012E0BAF1030F0FD1B9F1030F49
:1068200008D1BAF1020F1DD00221404604F012F83F
:10683000761CF6B217B149464046B847641C042C92
:10684000B7D3002E10D06A460121002004F03AF898
:1068500006990098884207D006900498002634468E
:106860000790A6E70321E0E70AB0BDE8F087000043
:10687000006000406891002000F01F02012191405B
:106880004009800000F1E020C0F88012704700F05D
:106890001F02012191404009800000F1E020C0F872
:1068A0000011704700F01F02012191404009800053
:1068B00000F1E020C0F8001270474907090E0028D7
:1068C00006DA00F00F0000F1E02080F8141D704798
:1068D00000F1E02080F800147047000070B54FF41C
:1068E0008076304603F0A2FC114CB50560B130460D
:1068F00003F0A3FC0120C5F80803607920B901204A
:1069000060712168002088474FF48276304603F09A
:106910008DFC00280AD0304603F08FFC0220C5F819
:1069200008032168BDE870400120084770BD0000E1
:10693000302C002007480021C0F84011C0F8441155
:10694000C0F84811C0F84C11C0F80011C0F804118B
:1069500006F094BB001001402DE9FE434FF482780D
:10696000404604F08FFB4C4F00254C4C012600B3F1
:10697000404604F08FFB94F82E0010B194F82F10CD
:10698000D1B18DF80050616801912189ADF80810EE
:10699000E26832B1218B618362602181E56010B1D0
:1069A00002E0257400E03E6021686846884784F86C
:1069B0002F5094F82E0060B34FF48077384604F0DF
:1069C00061FB30B3384604F065FB628B94F82D1000
:1069D0008A420AD9A2EB010080B260832289A2EB2D
:1069E0000000626802EB400005E007D1E06828B1D2
:1069F00084F82F60658304F03DFB04E08A4202D1F5
:106A000084F82F606583404604F044FB2248001D53
:106A100006604FF48877384604F034FB48B13846B6
:106A200004F038FB257402208DF8000021686846C8
:106A300088474FF48A77384604F024FB28B138465B
:106A400004F028FB2574BDE8FE834FF000484FF4A6
:106A50008C7967691DE000BFB7FA87F028FA00F16A
:106A600009EB80058F43284604F00CFB88B12846CB
:106A700004F010FBA5F58C75E8088DF8040045F3CB
:106A80008000401C8DF800608DF805002168684684
:106A90008847002FE0D1D6E70070004050920020D8
:106AA00000F090BA70B50E46144900EB400001EBBF
:106AB000C0051446E86A183520B101280FD0022815
:106AC00005D113E0284600F0B1FAA04201D200241B
:106AD00011E022463146284600F0E0FA0BE0284655
:106AE00000F0A4FAA042F4D20446F2E73146284668
:106AF00000F0A7FA0446204670BD0000049A00206A
:106B0000F8B51248124E04464FF48C7104F05DFD46
:106B100000281AD00025C4F81851D4F818010090A4
:106B2000F07F3446FF2806D0A17F11B103F0AAFE02
:106B300001E003F0B5FE65772572D4E9002101B0CC
:106B400004F10800BDE8F0401047F8BD00300040F7
:106B50002C92002006F0E0B904F0AABC1FB5022078
:106B600003F052FE022003F086FE042003F04CFEE8
:106B7000042003F08EFE112003F046FE112003F0E6
:106B800088FE144A0023D2E90A01526BCDE90001C4
:106B9000FF208DF8030006208DF8020003208DF8F9
:106BA000010005208DF8000080070290039200206C
:106BB0008DF80D0001208DF80C000648064A694644
:106BC000183003F081FB002803D004A29521FFF7C1
:106BD00021FB1FBD10D9020029CD02002E2E5C2EF4
:106BE0002E5C2E2E5C6D61696E2E630038B50546F5
:106BF0000C46042003F03FFE00222B4611460948B4
:106C0000009403F099FB0546642000EB440004F077
:106C10005DFD042003F03DFE15B103A000F060FA15
:106C2000284638BD28D902007370692072656164F6
:106C3000206661696C656400F0B5B5480023021DEB
:106C40000178101D01254FF0805406290BD11678CC
:106C5000360708D10678C6F30316032E06D0042E95
:106C600004D0052E02D0062907D00EE0B4F8246324
:106C7000A84FC6F304263E6002E01678360704D11A
:106C80000678C6F30316032E02D0062904D00FE0BF
:106C9000A24FA14E7E670EE01678360708D106781F
:106CA000C6F30316032E06D0042E04D0052E02D000
:106CB000062907D00EE0D4F84462994FC6F3423655
:106CC0003E6002E01678360704D10678C6F3031654
:106CD000032E02D0062906D011E0924E376827F025
:106CE000807737600EE01678360708D10678C6F34D
:106CF0000316032E06D0042E04D0052E02D006293A
:106D00000AD011E04FF08046C6F80C31C6F81031B9
:106D1000834E361F336002E01678360704D10678BA
:106D2000C6F30316032E02D0062905D00CE07C4FD3
:106D3000032664373E600AE01678360704D10678E9
:106D4000C6F30316032E02D006290DD014E0764FA9
:106D500005263E60744E78363560734E08363360D3
:106D60003F263F1D3E6002E01678360704D10678C4
:106D7000C6F30316052E02D0062957D062E06B4EEB
:106D800036686B4F3E60694E361D36683F1D3E606B
:106D9000664E083636683F1D3E60644E0C363668D7
:106DA0003F1D3E60614E103636683F1D3E605F4EAF
:106DB000143636683F1D3E605C4E183636685C4FB0
:106DC00020373E60594E1C3636683F1D3E60574E98
:106DD000203636683F1D3E60544E243636683F1DCF
:106DE0003E60524E283636683F1D3E604F4E2C3670
:106DF00036683F1D3E604D4E303636684C4F40374A
:106E00003E604A4E343636683F1D3E60474E383647
:106E100036683F1D3E60454E3C3636683F1D3E603D
:106E2000424E403636683F1D3E6002E01678360717
:106E300008D10678C6F30316032E06D0042E04D01C
:106E4000052E02D0062907D019E0D4F85812394A85
:106E500001F04F01116002E0117809070FD10078AD
:106E6000C0F30310032803D0042801D0052806D15D
:106E700031480168C90702D06FF001010160D4F800
:106E80003001062808D1D4F83401062804D12B4853
:106E9000016841F48061016022487438016841F45E
:106EA00070010160BFF34F8FBFF36F8F4FF0102160
:106EB000D1F80002002803DBD1F80402002822DA0E
:106EC0001F4A15601F480468002CFCD01524C1F827
:106ED00000420568002DFCD0C1F804420168002979
:106EE000FCD0136001680029FCD0BFF34F8F0D4820
:106EF000F0380168144A01F4E06111430160BFF306
:106F00004F8F00BFFDE7124910480860F0BD000038
:106F1000E00F00F0403501400DF0ADBA00C0074071
:106F20003C050040FCED00E0105600400404001059
:106F300020C50040E40E0040000400403C17004023
:106F400004E5014000E401400400FA050090D0038C
:106F50001C2D002004220249024802F06FBC0000F0
:106F6000809200200080004004220249024802F082
:106F700065BC00008C920020009000400422024971
:106F8000024802F05BBC00009892002000A0004084
:106F900006220249024802F051BC0000A4920020DF
:106FA00000A0014006220249024802F047BC00004E
:106FB000B092002000B00140014800680047000086
:106FC000382C002010B5124C02202061606111A005
:106FD000A06104F17800E0614FF4007020620020AD
:106FE000A06260620BA1A164E06204F51E71E1641D
:106FF0001021A065C4E91410E06509A1E01DFFF7A8
:107000006EFA08A12046FFF76AFA2020A07110BD91
:10701000049A00205465726D696E616C0000000076
:107020005254540053454747455200000269C16815
:107030008A4203D88068401A104400E0501A401E6B
:1070400070472DE9F047C4681746894606464FF059
:1070500000083069A04201D9051B02E0B168201A7E
:107060000D1AB0686D1E001BA84200D80546BD422F
:1070700000D33D4670682A4620444946FFF704FA8B
:10708000B0687F1B2C44A844A944A04200D100242E
:10709000F460002FDDD14046BDE8F0872DE9F041D6
:1070A00004468846D4E90207C51BE16860681646B5
:1070B0000844B54206D94146FFF7E6F9B819E06041
:1070C000BDE8F0812A464146FFF7DEF9761B08EB62
:1070D000050132466068FFF7D7F9E660F0E7000087
:1070E0000FB4054B10B503A9044A029800F03AF812
:1070F00010BC5DF814FB0000AB940200B42C00201F
:1071000000487047242D002002E008C8121F08C163
:10711000002AFAD170477047002001E001C1121F18
:10712000002AFBD1704700000121202803DA8140AA
:107130000548014003E0402802DA2038814009B1C7
:107140000120704700207047FC06FFBD082806D2CA
:1071500028B1012803D0042801D001207047002065
:10716000704700002DE9FF4F8BB09A460F4604464A
:10717000002606E025280BD052460D999047641C46
:10718000761C20780028F5D10FB03046BDE8F08F8E
:107190000025A94601227D4900E0054314F8013F7E
:1071A000203B02FA03F00842F7D120782E2817D1AD
:1071B00014F8010F45F004052A280ED06FF02F02B5
:1071C0002078A0F1300109290AD809EB890102EBE6
:1071D000410100EB0109641CF2E757F8049B641CB1
:1071E00020786C280DD004DC4C2812D06A2811D1EC
:1071F00004E074280DD07A280CD10AE045F400157B
:1072000007E0617845F48015814202D1641C05F5E0
:107210008015641C207869283ED006DC0028B3D095
:1072200063280BD0642804D136E0732810D0752869
:107230005CD052460D999047761CA5E017F8040BD8
:107240008DF8000000208DF80100E846012003E0E1
:1072500057F8048B4FF0FF3069074FF0000501D459
:107260000AE06D1C4D450DDA8542FADB18F8051071
:107270000029F6D106E06D1C8542FCDB18F80510EC
:107280000029F8D12E4404E018F8010B52460D995C
:1072900090476D1EF8D277E000200A90C5F30250A7
:1072A0004FF00A0B02280CD001CFC117021E71F15A
:1072B00000020CDA0023D0EB030063EB01012D2266
:1072C00008E0FF1D27F00707F7E80201EEE72A05AF
:1072D00004D52B228DF82420012203E0EA070FD0E9
:1072E0002022F7E70DF12008089218E000200A900C
:1072F000C5F302504FF00A0B022803D001CF002142
:107300000022EFE7FF1D27F00707F7E80201F7E784
:107310005A460A9BFFF774F8303208F8012D50EAFC
:107320000102F5D1ADEB080000F1200B680701D494
:107330004FF00109D94502DDA9EB0B0000E0002068
:107340008146002506E009A85246405D0D99904708
:107350006D1C761C08988542F5DB04E0302052460F
:107360000D999047761CB9F10001A9F10109F5DCEE
:1073700005E018F8010B52460D999047761CBBF1B9
:107380000001ABF1010BF4DC641CFAE609280100F2
:1073900000B5ABB0AC216846FFF78FF802208DF83E
:1073A000000000208DF8020006218DF80310012155
:1073B000ADF84C100C4A8DF87C1014924021CDE9A8
:1073C00022100A4829906946094800F0B5FC20B10E
:1073D00008A240F24231FEF71DFF0121044800F0EF
:1073E000A8FC2BB000BD0000A42B0020B5C00200FB
:1073F000448F00202E2E5C2E2E5C2E2E5C6D61693B
:107400006E2E630010B50321064800F07CFD0028B5
:1074100006D0BDE81040044A40F27F31FEF7FABEC4
:1074200010BD0000448F002008D10200022001F0AE
:1074300055BA000070B50024064D06E068680121C9
:1074400010F8340004F052F9641C28788442F5D313
:10745000002070BD402C0020F8B515460C460646AD
:10746000052A01D20720F8BD04F03CFA18B904F04F
:1074700001FA0028F7D1124900224E600C708D608D
:10748000C1E90422C1E906220E4D0DE006EBC4005D
:107490002968009181788DF8011000780A4A6946C0
:1074A00004F076F90028DED1641EE4B2EED2BDE825
:1074B000F84004480021054A001D00F01DB90000F5
:1074C000402C0020C8D90200219602001D93020022
:1074D0002DE9FE4314460F46804672B603F0AEFC1B
:1074E00003F0D8FA0028FBD10125274EB8F1010F8F
:1074F00028D06FF4805118EB010028D0B0F5405F20
:107500002CD06FF44051C84208D13088238805EB55
:1075100000401EA1626803F0D8FB06E030883A46BE
:1075200005EB004020A103F0C9FB25480068C00717
:1075300000D000BE224603B039464046BDE8F043C5
:1075400000F080B830881FA105EB004003E03088D0
:1075500024A105EB004003F0ADFBE6E7A06804F0D2
:1075600055F80346D4E90001CDE9001002973088B0
:1075700025A105EB0040A26803F0B8FB30882CA1E0
:1075800005EB0040E7E70000642D00204153534520
:107590005254494F4E204641494C45442061742085
:1075A00025733A2575000000554E4B4E4F574E201F
:1075B0004641554C542061742030782530385800AD
:1075C000F0ED00E0534F46544445564943453A20B8
:1075D000415353455254494F4E204641494C45442E
:1075E00000000000534F46544445564943453A2055
:1075F000494E56414C4944204D454D4F525920412A
:1076000043434553530000004552524F52202575C5
:10761000205B25735D2061742025733A25750D0A62
:1076200050432061743A20307825303878000000CB
:10763000456E64206F66206572726F72207265708D
:107640006F72740008B501238DF800309DF800308A
:10765000144B186059609A606FF48041401807D04D
:1076600001280FD1DA60D86800889861D86807E0EF
:107670001A6118698068586118690068986118690A
:107680004068D861186858689868D8681869586957
:107690009869D86972B600BF9DF800000028FBD138
:1076A00062B608BDDC92002010B58268C3689342C0
:1076B00003D001F0D3FE002010BD052010BD29B17C
:1076C00012B1531E134203D0092070470E20704799
:1076D0000160838000218160C1600846704710B559
:1076E0008268C3689A1A83889A4203D801F0C0FE60
:1076F000002010BD042010BD074B9B7823B12AB198
:1077000020B10068037C1BB1082070470720704738
:107710004174426100207047FC92002070B505F072
:1077200087F8104800240B21047044700E4D8170BE
:1077300014206C602C706C70FFF79EF807211420E9
:10774000FFF7BBF81420FFF7A2F8084804600721F0
:107750001120FFF7B2F80548001F0068A86000205C
:1077600070BD0000FC920020602C00200815014034
:107770002DE9FC47DFF8789099F8023073B368B3CD
:10778000052902D20720BDE8FC87436933B3437C57
:10779000012B25D0002704460025884616468DF883
:1077A0000050684600F0EEF801A806F015F8C8B1E0
:1077B000012101700F4944600968C0E90218C0E95D
:1077C00004769DF8040089F801009DF8000000F09F
:1077D000FDF81420FFF766F82846D4E70820D2E722
:1077E0000F46D8E704259DF8000000F0EFF8F3E716
:1077F000FC920020041501400649897839B130B166
:10780000416921B100210174022105F013BC082057
:1078100070470000FC92002070B50B4E01460B48EB
:10782000B578FFF741FF04465DB10020B070711CD0
:107830000122C81D02F0C0FD18B105A2CE21FEF73D
:10784000E9FC204670BD0000742C00200894002044
:107850002E2E5C2E2E5C2E2E5C2E2E5C2E2E5C2E62
:107860002E5C636F6D706F6E656E74735C6C6962B5
:107870007261726965735C756172745C6170705F6E
:10788000756172745F6669666F2E6300F0B5244E91
:1078900089B01F460D00044672603FD0A888296851
:1078A00082B22048FFF70BFF002835D1A889A968CC
:1078B00082B21C481030FFF702FF00282CD1202292
:1078C00019496846FEF7E0FD60690690207C00B12A
:1078D00001208DF814008DF81C70607C00B10E2022
:1078E0008DF81500E0680290A06803902068019070
:1078F000606800900A480D4A6946083002F028FD89
:10790000002809D1B0702068401C05D0044901222C
:10791000491CC81D02F050FD09B0F0BD0720FBE76F
:10792000742C002008940020D8D90200FDD2020057
:1079300010B501461048FFF7D2FE040019D10F48D8
:107940000F4A0178515C19B1001D04F06BFB02E095
:107950000C3004F04FFA60B9084907480839FFF7BE
:10796000A3FE30B9054901220839044802F034FD6C
:107970000446204610BD0000189400207C2C0020F6
:10798000242C002030B5EFF3108172B60D4A9468B4
:10799000012324B10370002900D162B630BD936089
:1079A0004FF0E023D3F88051074C25401560C3F811
:1079B0008041D3F8844154605A17C3F884210022CF
:1079C0000270E8E728940020FC06FFBD0B498A6896
:1079D000002A11D000280FD1EFF3108072B60B6887
:1079E0004FF0E022C2F800314B68C2F804310022A7
:1079F0008A60002800D162B67047000028940020F9
:107A00002DE9F041064608680C46411C4FF0A0479E
:107A10004FF0010506D005FA00F1C7F808152068F7
:107A200002F0FAFE6068411C02D0002102F0DAFE8A
:107A30003168A069C1F82405607D227D316810435A
:107A4000C1F86C05D4E900123068C0F81425C0F8FC
:107A50000C15207D012815D1A068411C02D0002101
:107A600002F0C0FEE068411C05D08540C7F808550B
:107A7000E06802F0D1FED4E902123068C0F80825AF
:107A8000C0F81015BDE8F0812DE9F0410646086800
:107A90000C46411C4FF0A0474FF0010506D005FAF7
:107AA00000F1C7F80815206802F0C0FE6068411CAC
:107AB00002D0002102F09FFE3168A069C1F82405C0
:107AC000607D217D32680843C2F86C05D4E900125C
:107AD0003068C0F80C15C0F81425207D012815D198
:107AE000A068411C02D0002102F085FEE068411C24
:107AF00005D08540C7F80855E06802F097FED4E944
:107B000002123068C0F80825C0F81015BDE8F081F1
:107B100070B51500044609D00020286034B12068F3
:107B200020B1A079800703D0072070BD0E2070BD62
:107B3000084600F037FBC0B2142804D021798142F6
:107B400003D8042070BD052070BDE288216800FBC9
:107B500002102860002070BD2DE9FC470025178821
:107B60000646158090F82D001446894630B13A46F5
:107B70002146484600F02AFB051E09D1B0784FF097
:107B80000C0A18B32088C846001DB84202D95046D6
:107B9000BDE8FC87684679DF0028F9D120880321F9
:107BA00008F8001020881921401C80B2208008F8B5
:107BB00000102088401C80B2208000EB0801BDF836
:107BC000000005F057FD218808442080F07802224B
:107BD000C8B1218896F9033001F1030C4846BC4531
:107BE000D5D8425421884FF0010C491C89B221801C
:107BF00000F801C02188491C89B2218009F80130B0
:107C00002088401C20807068B8B1218890F900302D
:107C100001F1030C4846BC45B9D8425421880A22D8
:107C2000491C89B2218042542188491C89B2218093
:107C300009F801302088401C2080308950B1CDE9FE
:107C400000474B460622022106F1080005F0DCFD44
:107C5000051E9DD1308A50B1CDE900474B46072221
:107C6000032106F1100005F0CFFD051E90D1308BE9
:107C700050B1CDE900474B461522142106F11800FA
:107C800005F0C2FD051E83D1306A30B13B46224665
:107C9000494601F01AFA051EDBD1706A30B13B4645
:107CA0002246494601F0EEFF051ED2D196F82C007F
:107CB00038B13B4622464946304604F00FFF051EC8
:107CC000C7D1307838B13B4622464946304602F0AB
:107CD0005FF8051EBDD128465AE718B504460020B6
:107CE000ADF8000013466A46204600F006F800286A
:107CF00002D0BDF80000204418BD70B588B182B133
:107D00000024158803E0065D641C3444A4B2A54237
:107D100003D8061976789E4201D08C42F3D38C4268
:107D200001D3002070BDA11C1180005D401E80B2F7
:107D300070BD80F8301070472DE9F0410D00044609
:107D400006D02CB195F87A000026012803D006E071
:107D50000E20BDE8F08195F89800012829D0D5F8CB
:107D6000A000042825D0D5F89C00042821D04FF08D
:107D70000108A6702C2205F17801201DFEF784FB76
:107D800084F83060D5F8A4006063D5F8A800A0633B
:107D90004FF6FF70A4F8A80004F19400C4F8A40002
:107DA000C4F8AA60A4F8AE6084F8B060207810B17E
:107DB00004E00720CDE7FF2084F8540004F15501CA
:107DC0001F27C4F89410A4F8987004F1980228466C
:107DD000FFF7C2FE0028BCD115F13C0F0ED004F114
:107DE0007401C4F89C10A4F8A07004F1A00205F17D
:107DF0003C00FFF7B1FE0028ABD103E0C4F89C6063
:107E0000A4F8A06084F85180208BA4F8480084F87E
:107E10003C80266484F8506060696064454604F1E3
:107E20003C02002104F1540072DF002891D125703A
:107E30008FE710B50288102A1BD0112A20D0262ADD
:107E40001DD1007A0C46012801D0022817D1A07854
:107E50000521401CB0FBF1F201FB1201204600F0AD
:107E600052F800280BD0A16B002908D0BDE81040C3
:107E70000847C27B012A02D18088A1F8A80010BD62
:107E80000C46002184F8B2108088B4F8A81088420B
:107E9000F5D120790028F2D10121DFE710B50C4699
:107EA000022801D0032810D1607800280DD00020CE
:107EB0006070A178204600F026F8002805D0A16B5C
:107EC000002902D0BDE81040084710BD10B5044697
:107ED00090F8540074DF012084F8B200002084F888
:107EE000B40084F850000621204601F0CAFA0028A8
:107EF00008D1A178204600F006F810B1A16B01B1BD
:107F00008847002010BD2DE9F05F044600780F4639
:107F100038B1A770002002F075FB012620B1667011
:107F200007E10820BDE8F09F0025C4F8AA50A4F896
:107F3000AE5084F8B050A07910B1A078012806D0D6
:107F4000E07968B1A078012801D0022808D1616BDE
:107F500021B184F8B1600820884701E084F8B1506D
:107F600004F1AB0100200A5C0AB1304603E0401C7A
:107F70000628F8D300204FF002084FF0030B012F22
:107F800006D0022F0CD0032F0FD0042F15D110E0F4
:107F9000A17929B194F8241011B908B130460DE047
:107FA000E17911B108B1404608E0207A08B158469D
:107FB00004E0607A08B1042000E02846A070616BFC
:107FC00041B1032801D0042804D1607910B194F89C
:107FD000B200A0B184F8B35004F13C001821074668
:107FE000FEF76BFA04F12C0084F83C60814604F043
:107FF0001DFB58B194F82C0084F8510008E084F877
:10800000B45084F8B36007208847E5E784F85160EE
:1080100094F8240050B1484604F008FB20B194F8CD
:10802000280084F8520001E084F8526084F850502F
:10803000A27804F1AA0104F194094FF0060A052A76
:1080400060D2DFE802F078030F223F0084F831604D
:10805000C4F8A450C4E9101584F83C808020A4F82A
:10806000480051E084F8318094F82420384612B159
:108070000722027001E080F800B0228A8281C4F8F1
:10808000A4504160E168B9603EE06069B860208B4F
:10809000B88194F824003D4610B184F83CA001E07A
:1080A00084F83C60204605F079FB40B185F81480E7
:1080B0000421204601F0E5F920BB05211EE084F8EB
:1080C00031B01DE0E069B860208CB88194F82400DC
:1080D0003D4610B184F83CA001E084F83C602046A5
:1080E00005F05CFB48B185F814800421204601F0BE
:1080F000C8F938B984F831A002E0042184F83110BD
:10810000C4F8A490A07878B13A4604F15400D4F8A9
:10811000A41072DF00287FF405AF94F8301094F8B3
:10812000540073DF0028F6D1616B11B194F831006F
:1081300088470020F6E684F83150F5E770B5040072
:1081400012D001461C221448FEF79EF91248134D26
:108150000560206850B17ADF002806D120680168E8
:1081600029604068686005E00E2070BD0B487BDF29
:108170000028FAD108484FF6FF711438084A20F851
:10818000041B0549343901600021FFF7B5FA0028C6
:10819000EBD0032070BD0000C09000201C2C0020FC
:1081A00035D7020010B5044600F006F808B12046A5
:1081B00010BD142010BD0000142801D3002070470A
:1081C0000146014801F053BEE09000207CB5054611
:1081D00008880C460930904201D90C207CBD6846C5
:1081E0006DDF0028FAD121880820685420881B21DF
:1081F000401C80B2208029542088401C80B22080FE
:108200002844DDF801100160BDF805108180208848
:10821000801D80B220809DF80010490800D0012107
:1082200029542088401C208000207CBD2DE9FC4181
:10823000564B05460188042218880026524C02EB52
:10824000004223296CD021DC50484FF0030710294D
:10825000008807EB00402ED0112953D0132970D08D
:10826000212911D110464AA102F024FD4D4869464A
:1082700000680090A8888FDF002805D04AA240F24D
:108280003D2100BFFDF7C6FFBDE8FC813B2972D050
:10829000522961D05629F7D1A888132176DF28B159
:1082A00041A240F2572100BFFDF7B4FFBDE8FC41F9
:1082B000022002F0E0BA1E463FA102F0FBFC0720BC
:1082C00000F030FC20B138A240F21521FDF7A2FFEA
:1082D000AA88A28030883BA107EB004002F0EEFCA8
:1082E000A1883C4801F02AFF20B12FA240F21921B9
:1082F000FDF790FF022002F0CCFABDE8FC4101201E
:1083000000F0D6BD34A102F0D5FC4FF6FF70A0807E
:10831000022002F0B0FA012000F0CAFDA661B3E726
:10832000104631A102F0C6FC00960196A8880022F2
:10833000694690DF0028A7D01BA24FF40B71A1E77C
:10834000FFE700231A468521A0887FDF00289BD005
:1083500015A240F2432109E000231A461946A088DD
:10836000B1DF002890D010A240F2492102B0BDE850
:10837000F041FDF74FBFA888132176DF002895D084
:1083800009A24FF414718FE7982B0020642D002070
:108390005048592075706461746520726571756507
:1083A00073742E0010D902002E2E5C2E2E5C2E2E01
:1083B0005C6D61696E2E6300436F6E6E65637465FC
:1083C00064000000436F6E6E65637465643D2564F0
:1083D00000000000388F0020446973636F6E6E6583
:1083E0006374656400000000444C4520757064614E
:1083F000746520726571756573742E0010B5244C18
:108400000188606810290CD0112929D1401E6060B4
:1084100026D10122022100F063FB10B3072831D1DD
:108420001FE0D0B900210122084600F059FB08B135
:1084300007280FD107220221012000F051FB08B1CB
:10844000072807D104220221002000F049FB20B1B7
:10845000072802D0216801B188476068401C60602D
:1084600010BD07220221012000F03AFB08B10728C5
:1084700008D100210A22084600F032FB0028EFD084
:108480000728EDD021680029EAD0BDE81040084750
:10849000142C00202DE9F04701883B4E40F2F319DF
:1084A0004FF6FF7510291BD011293ED0122954D048
:1084B000502946D1C188F289841D914241D16189F8
:1084C00002293ED18688304601F0F4F8050038D004
:1084D00004F10C0000F096F9A8B3294630464EE0AE
:1084E000C17B8788044601292BD1A846284601F084
:1084F000E1F8050017D02F8000202872234843465A
:108500004A460168C5F80A104068C5F80E0004F133
:10851000100105F10A0001F0B4F96872F089002831
:108520000FD129462AE0042013E0808801F0C2F828
:10853000040006D06068FFF75FF908B104F09EFA06
:108540002580BDE8F087FFE76868FFF755F9002848
:10855000F7D0BDE8F04704F091BA87880646384660
:1085600001F0A8F80400ECD02B464A4606F10801B9
:1085700004F10A0001F085F9607221463846BDE831
:10858000F04700F027BE0000C09000201C2C002007
:108590002DE9F04F0746858802883E48012197B0B3
:1085A0008346102A09D0112A4BD01A2A6ED1387A64
:1085B000B1EB101F47D2012246E0364C083CA068C0
:1085C000C0430B9061680BA801F072FC0B990CA8DA
:1085D00000F05CFD2C220CA96846FDF755FF002633
:1085E000E946A04610E000BF09EB46005FF000043A
:1085F000B0F804A008EB84005146001D01F02CFCEB
:10860000641C1D2CF6D3761C0098B042ECD8142DB7
:1086100007D317B0E321BDE8F04F1FA20420FDF7F8
:10862000F9BD2946584601F02DFC294608F1040001
:1086300001F028FCF87B012828D016482946001DA7
:1086400015E029461AE000220221B1EB101F01D2E9
:10865000012600E000260F49083901F11000041D31
:10866000294682B101F00EFC36B12946204617B0EA
:10867000BDE8F04F01F006BC2946204617B0BDE822
:10868000F04F01F0E9BB01F0E7FBF5E717B0BDE8FB
:10869000F08F0000E49000202E2E5C2E2E5C2E2EFB
:1086A0005C2E2E5C2E2E5C2E2E5C636F6D706F6EBA
:1086B000656E74735C626C655C636F6D6D6F6E5C30
:1086C000626C655F636F6E6E5F73746174652E6359
:1086D00000000000F0B585B016460F4604001D46A8
:1086E00014D004AA19466069FFF712FA00280BD1CA
:1086F000A5F57F40FF380BD0049848B1007848B109
:108700003088F42808D9072005B0F0BD0E20FBE71B
:108710000520F9E70820F7E700200090019002907B
:108720000390A088ADF8000001208DF80200CDE98B
:10873000026769462846AEDFE6E7000030B5144B15
:108740000D4604000FCB85B08DE80F001ED0EDB1B3
:108750002868A0612146684662DF002814D120788D
:108760008DF812000120ADF81000A21C04A9A8DFAA
:10877000002809D12946204604F091F8002803D1A9
:108780002946204604F0D8FC05B030BD0E20FBE79A
:1087900098D9020070B588B00446002924D0002C76
:1087A00022D008462188102920D0502924D05729CA
:1087B0001AD10546A188406906AAFFF7A9F9002841
:1087C00012D1069E307800280ED018216846FDF799
:1087D00074FE01208DF800000195A088ADF8080016
:1087E0000396A9696846884708B070BD08B021465D
:1087F000BDE8704003F096BC08B02146BDE870406B
:1088000003F0D2BE007800F00100704708B502F016
:1088100013FE20B10DA240F26A21FDF7FBFC0020FF
:1088200000906946012002F049FC20B107A24FF4F4
:108830001C71FDF7EFFC684602F0EAFC002804D04A
:1088400002A24FF41D71FDF7E5FC08BD2E2E5C2E33
:108850002E5C2E2E5C6D61696E2E63000149085CF2
:108860007047000062D902000649095C4FF0A04041
:10887000D0F81005C84010F0010000D0012080F0B1
:108880000100704762D902002DE9FC410646C0078D
:108890004FF000050ED0104F00240122385D0095E6
:1088A00000231146019501F043FF641C022CF4D310
:1088B00000F046F8B0070DD5074E0024B61C002284
:1088C000305D032300951146019501F031FF641CD2
:1088D000022CF4D3BDE8FC8160D9020007490B5C8F
:1088E0004FF0A041D1F804250120984020EA02036E
:1088F000C1F808351040C1F80C05704760D9020076
:108900000249085C012101F0D2BF000060D90200D9
:108910000249085C002101F0CABF000060D90200D2
:108920000649095C4FF0A040D0F80405C84010F09B
:10893000010000D0012080F00100704760D90200E2
:1089400010B500242046FFF7DBFF641C022CF9D38E
:1089500010BD10B500242046FFF7DAFF641C022C7E
:10896000F9D310BD10B50246064B4FF0FF30002181
:108970005C5C944201D1084610BD491C0229F7D322
:1089800010BD000062D9020070B50C0009494FF01B
:10899000000508600BD0012000F064F808B1022047
:1089A00004E0002000F05EF800B10B2020702846A3
:1089B00070BD0000142C002010B5002000F0E4F978
:1089C00008B1062806D1012000F0DEF908B106281A
:1089D00000D1002010BD00002DE9F0470D46814672
:1089E000FFF7C0FF0446022836D2DFF874801B4828
:1089F00008F10C06A6F110071DB3012D0ED0022DB3
:108A00002AD104EB440030444578002D24D0F96885
:108A1000002921D02846BDE8F047084704EB44016F
:108A2000755C0E44717841B10D4AA421521E8068D4
:108A3000FEF79EFE08B987F80390B17808F8041095
:108A4000E3E78068FEF7D8FE04EB4401314418F8F0
:108A500004008D78A842D8D0BDE8F08764D9020020
:108A6000002C0020022801D2FFF7FEBE0020704734
:108A700010B5154A042807D0072810D00A2821D19C
:108A8000BDE8104004F09AB81321908876DF0828DA
:108A900018D0002816D00DA240F2AB210EE090882D
:108AA000A0F57F41FF390DD10C48FFF70FFA0828D8
:108AB00008D0002806D005A240F2B521BDE810403C
:108AC000FDF7A8BB10BD0000982B00202E2E5C2EB9
:108AD0002E5C2E2E5C6D61696E2E6300448F00202B
:108AE00070B50023022810D20D4D00EB4004012A7E
:108AF00002D101290CD00022094E00EB4000304485
:108B000061B1012906D0022906D00723184670BD9D
:108B10000E30C2B22A55F9E74270F7E78270F5E7E6
:108B20000C2C0020044A01460020127AD20702D001
:108B3000084600F04DB87047FC2B002070B5064683
:108B40001E480024C0E90261B0071FD5002501229C
:108B500002212846FFF7C4FF6D1C0446022D02D2F5
:108B6000002CF4D012E08CB9212202211448FEF727
:108B700073FC04000AD1FEF75DFC040006D1104826
:108B8000104A0021001FFEF7B7FD0446F00712D07F
:108B90000120FFF779FE74B909480B4A00210C380F
:108BA000FEF7AAFD040006D10548084A012108384D
:108BB000FEF7A2FD0446204670BD0000FC2B0020FD
:108BC00070D90200558E0200ED9802002D7402004B
:108BD0002DE9F05F6A4C054600266078B34618B16F
:108BE00084F801B000F070FE664F4FF47A694FF4DC
:108BF000C87A4FF00108182D62D2DFE805F0AC0CFE
:108C00000C31404D62676B746B74BE7D7D7D7D7DE4
:108C1000ACAFB2B5BEBE0020FFF782FE00284FF019
:108C2000000008D0FFF76CFE022D02D14FF4E16086
:108C300008E0484606E0FFF76BFE022D01D1C82090
:108C400000E05046410CC0034FF4FA72801841F125
:108C50000001257052000023FDF7D2FB01462AE0F7
:108C60000020FFF75DFE00284FF0000004D0FFF762
:108C700047FE4FF44870E5E7FFF74AFEDFE70020C4
:108C8000FFF74EFE00284FF0000002D0FFF738FE3D
:108C9000CFE7FFF73DFED4E70020FFF741FE0028B5
:108CA0004FF0000002D0FFF72BFE01E0FFF730FE8F
:108CB000257041F69A1100223868FEF759FD0646E4
:108CC00046E00020FFF70AFE257008E0002051E092
:108CD00025703DE084F801800120FFF7FFFD0022B0
:108CE00040F6CD41E8E784F801800120FFF7F6FD6A
:108CF00000224FF48041DFE77868FEF77DFD0646ED
:108D0000D5F1110000D02EB10220FFF7F9FD84F853
:108D100002B01DE0012816D980B2C8214843C1170E
:108D2000C90341EA5041C0034FF4FA72801841F17F
:108D3000000152000023FDF763FB01460022786822
:108D4000FEF716FD06460220FFF7E2FD84F80280DA
:108D50003046BDE8F09F00F0B7FDB9E700F0B4FD84
:108D6000B4E700F0B1FD04E000F0AEFD0020FFF735
:108D7000CFFD0120FFF7CCFDAAE7FFF7EAFDA7E74B
:108D8000FC2B002064D90200012104F0A4BD0000E6
:108D90002DE9F8430546861C00208DF8000090461A
:108DA0000F464FF001096846FEF7ECFD1B4C2068AA
:108DB0003860D4E90001401AA16804F21C47081A7F
:108DC0000EE00121384601F06DF800F033FE014657
:108DD000384601F067F8D4E90001401AA168081A82
:108DE000401C8642EDD8B8F1000F03D0052065F392
:108DF000891002E0062065F39F50A26821681140A7
:108E000004EB8101C8602068304420609DF80000B8
:108E1000FEF7DCFD4846BDE8F8830000E095002041
:108E200030B482680468531C8360A154D0E90112F5
:108E30008A4202D330BC01F0ECBA30BC704700006B
:108E4000034803C8814201D10120704700207047C8
:108E5000E095002000780021FFF7BEBD38B504463C
:108E60000E490320FFF76AFE20B10DA240F25131F6
:108E7000FDF7D0F969460020FFF786FD20B108A272
:108E80004FF45571FDF7C6F99DF80000022802D095
:108E90000020207038BD0120FBE70000718A02002D
:108EA0002E2E5C2E2E5C2E2E5C6D61696E2E630064
:108EB0002DE9F04100260127184D194C062819D23A
:108EC000DFE800F01A0B241E03056F7420E06E74B7
:108ED000BDE8F041114802F045BE112001F0D9FC77
:108EE0002670A6700D4802F02FFE6E740D48AE7409
:108EF000A6600670BDE8F081A6706F742670F9E771
:108F0000112001F0B8FCA6702770F3E767706E744B
:108F1000BDE8F041014802F017BE0000E42B00203C
:108F2000982B0020E02B002005494FF0FF32082845
:108F300041F8202002D3084480F848207047000000
:108F400068910020F0B54FF0FF3512B100230826DC
:108F500001E008230C260C4C05E000BF54F82370F8
:108F60007F1C04D05B1CB342F8D32846F0BD261802
:108F70005DB286F8305044F82310002AF5D1E1188C
:108F800081F84800F1E70000689100200249084498
:108F900090F93000704700006891002070B5084CCF
:108FA000050009D010342168002907D00868206026
:108FB000496828468847F6E70834F4E770BD0000A2
:108FC00054910020054A012120B1012805D191705A
:108FD000FFF7E4BF51700020FAE77047549100207A
:108FE0002DE9F05F26484168F1B3DFF898B00E68CC
:108FF0008146DBF8004087688078E11B21F07F45DF
:10900000ED1CB0B9DFF880804FF48030C8F844031D
:10901000C8F804031120FDF72FFC1120FDF737FCE1
:109020004FF0010AC8F800A02F2002F057FB89F882
:1090300002A0B54200D23546124BE8193C3320F06D
:109040007F401860DBF800105A46091B21F07F4171
:10905000001B20F07F40C91C81420FD910681860A6
:109060002F2002F03BFB00E004E0BDE8F05F1120A0
:10907000FDF718BCBDE8F05F03F0DABBBDE8F09F78
:10908000602C0020041501400010014073B58CB025
:109090000646002000900D9880B100246D462146C0
:1090A0000DA800F0E4FE30B1009805EB400084808C
:1090B0000098401C0090641C142CF0D32C226946AC
:1090C0003046FDF7E1F90EB070BD2DE9F04117888B
:1090D0000646B81D14460D46984202D90C20BDE83C
:1090E000F0813188072206290AD34FF4486C4FF6E5
:1090F000FF73614501D9994202D17088062801D2D7
:109100001046ECE7604501D99842F9D1994203D065
:10911000984201D08142F3D80520E85520881221D9
:10912000401C80B2208029542088401C80B22080BE
:109130004119308804F09EFA2188084480B22080CA
:109140004119708804F096FA218808442080002094
:10915000C5E7000002A24FF4E071FDF75BB8000024
:109160002E2E5C2E2E5C2E2E5C6D61696E2E6300A1
:1091700000B587B01C216846FDF79FF900204FF429
:109180002031CDE900014FF47021029103218DF8C7
:109190000C10ADF80E008DF8100008480590084836
:1091A00006906846FEF7CAFF002804D005A240F2E8
:1091B000D711FDF72FF807B000BD0000F1C0020085
:1091C000559102002E2E5C2E2E5C2E2E5C6D616958
:1091D0006E2E630038B54A7A0F4B62B100220A72D4
:1091E0005969002906D001228DF80020ADF802004F
:1091F0006846884738BD0A7A62B19B684C68024667
:1092000019462046FEF7B4FA0028F3D0BDE83840EE
:1092100003F034BC5B68F1E7C0900020F0B5204C4F
:109220000D4606462088042101EB004087B03346F6
:109230002A461CA101F049FD002004900590ADF8DC
:10924000105001900290ADF8125001AA04A93046C6
:1092500090DF070021D002F0D9F9034620880125CC
:1092600005EB004032461B4901F02FFDBDF80420FC
:1092700012B9BDF8060038B12088BDF8063005EBFC
:10928000004015A101F021FDBDF808202AB1208879
:10929000214905EB004001F011FD07B03846F0BD53
:1092A000282D00205570646174696E6720646174B4
:1092B00061206C656E67746820746F202575206F5F
:1092C0006E20636F6E6E656374696F6E20307825F3
:1092D000782E00000CDD02005468652072657175FF
:1092E00065737465642054582F5258207061636B05
:1092F0006574206C656E67746820697320746F6F85
:10930000206C6F6E672062792025752F2575206F80
:1093100063746574732E000058DD02002DE9F04778
:109320000025DFF88C803CE06068002100EBC5067A
:10933000012032789146FDF794F8D4E9062300EA3B
:10934000020701EA030C57EA0C0728D082438B433B
:109350004846C4E9062302F083FA327882469146F1
:1093600001200021FDF77DF8D4E9042300EA02047E
:1093700001EA03074A4650460021FDF772F84440CF
:109380004F403C430BD17078012801D0012100E00F
:109390000021726881EA0A010AB1484690476D1CB3
:1093A000EDB298F8000044468542BDD3BDE8F08791
:1093B000402C002010B50021024800F084FD80F30D
:1093C000100010BDFC9900200E4910B50A784C78A9
:1093D0000023A24212D0521CD2B20A70022A00D13B
:1093E0000B70084A0B780C3252F823200260886810
:1093F000104420F07F408860012010BD03600020F1
:1094000010BD0000602C002030B50446006887B015
:109410000D46806800281FD018216846FDF74DF8DA
:109420000195A0680590207910B1012810D107E0BE
:1094300001208DF8000020690290E068039005E0AB
:1094400002208DF80000E06800030290606904903B
:10945000206881686846884707B030BD8268838885
:109460001A4003689A5C0A708168491C81607047E1
:10947000C26883881A4003689954C168491CC16056
:10948000704770B50D460446B0F89810D0F89400B7
:109490000122FEF722FC00B1057004F13C0204F148
:1094A000940104F1540072DF70BD10B50446C0B2DF
:1094B000FEF73EFA204610BD0EB515A19DF8080036
:1094C00020F00F00401C20F0F00010308DF8080054
:1094D000052202A87CDF18B10FA2DC21FCF79AFE5E
:1094E0000020009001900621ADF80400ADF80010B6
:1094F0004FF4C8700921ADF80600ADF802106846B7
:109500007ADF002803D004A2E621FCF783FE0EBD1B
:109510004D545F5A330000002E2E5C2E2E5C2E2EF2
:109520005C6D61696E2E630070B5044610484A8810
:10953000104D83889A4210D10A88A2F52063773BA8
:109540000BD18988C91E8AB2C2802888032101EB09
:109550000040134608A101F0B8FB288823886288E0
:10956000BDE87040042101EB00400BA101F0ADBB50
:10957000982B0020642D002044617461206C656E7E
:10958000204D54552069732073657420746F20300A
:109590007825582825642900415454204D545520DD
:1095A00065786368616E676520636F6D706C657464
:1095B00065642E2063656E7472616C203078257846
:1095C000207065726970686572616C2030782578EA
:1095D0000000000010B50C490C4800F0F5FC20B16B
:1095E0000BA240F28F21FCF715FEF721074800F08F
:1095F000DFFC002806D0BDE8104005A240F2922111
:10960000FCF708BE10BD000029950200248F002041
:109610002E2E5C2E2E5C2E2E5C6D61696E2E6300EC
:109620002DE9F0418046024601200021FCF719FF98
:109630001A4F05460E467868FEF7DEF800280CD172
:10964000174CD4E9062110462A4001EA06031A43C2
:1096500005D0A843B143C4E90601BDE8F081404606
:1096600002F0FEF830B1D4E9040128433143C4E9E3
:10967000040105E0D4E90410A943B043C4E904108F
:10968000D4E9060128433143C4E90601A16878689A
:10969000BDE8F0410022FEF76BB80000C8D9020017
:1096A000402C002010B501F0F5F9BDE8104001F0A4
:1096B000B3BC00000146034802888A4200D0002063
:1096C00070470000AC9000202DE9FC5F0E0083463F
:1096D000DDE90C47C6F1000098469246814600D469
:1096E0000846012503E000BF90FBFAF06D1C5045D1
:1096F000FADAA84500D9454624B1002E01DB7807E7
:1097000000D5641EB80702D5B8F1000F0AD0F807DB
:1097100008D13CB1A54205D220215846641EFFF76E
:109720007FFBF6E7002E02DA4E462D2102E0780795
:1097300003D52B215846FFF773FB07F003000228DF
:109740000BD1B8F1000F08D13CB1A54205D23021B0
:109750005846641EFFF764FBF6E7CDE90047434631
:1097600052463146584603F08BFFBDE8FC9F00008F
:1097700070B50D46044600684FF4887101F06CFF27
:109780004FF49071206801F067FF4FF492712068E8
:1097900001F062FF4FF4A271206801F05DFF2068C4
:1097A0001249C0F8041320686907000B40B2090E83
:1097B000002806DA00F00F0000F1E02080F8141D08
:1097C00003E000F1E02080F8001420680121000B84
:1097D00040B200F01F0291404009800000F1E020FB
:1097E000C0F88012C0F8001170BD00001003020024
:1097F000024600201268930702D0530702D4704734
:10980000500714D502F00300012802D002280CD121
:1098100005E0C2F383100B68801C184404E00223A7
:10982000086803EB925210440860012070470868F2
:1098300000EB9253C2F38910401CEEE72DE9F04192
:10984000174688460646002417E000BF4FF4A07074
:1098500000EB84054FF480307159A04059B1D6F81F
:109860000413014207D02946304601F0D9FED8E959
:10987000002128469047641CE4B2BC42E6D3BDE810
:10988000F081F0B58488A518944200D82246A41A25
:10989000C288D6189A4200D81346D21A4B88078835
:1098A000BB420CD34088834209D88888A04206D3A3
:1098B000A84204D8C888904201D3B04201D9002000
:1098C000F0BD0120F0BD0000074810B5807838B128
:1098D00000242046FFF714F8641C022CF9D310BDB5
:1098E000BDE81040FFF72CB8FC2B00200348017A9C
:1098F000C90702D00078FFF76BB97047FC2B002036
:10990000F721018017214180002101714171FB2164
:1099100081711B21C17170472DE9F047394E002735
:1099200080463D46DFF8E090D6F804A057E003D02B
:109930000446D0F81C8035E099F8002002EB420183
:10994000521CD2B289F8002009EBC10199F802300B
:10995000091D9A4201D189F8005048680A780446E6
:10996000012A12D0022A02D0032A3BD108E003F0D8
:1099700031FB00B10127257434E00574C06900E0B3
:1099800070680028F9D170602CE0207C50BB88689A
:109990006060C868A0600869E0604869A061F0780C
:1099A00000B165606268B168184B501A20F07F40C2
:1099B000984202D2A168084406E0881AA16820F003
:1099C0007F40814202D9081A206000E0256065606E
:1099D0000120A56020742046E56103F0DDFAB8F1AE
:1099E0000000A4D199F8001099F801008142A3D198
:1099F00017B97168514502D00120BDE8F0870020F9
:109A0000FBE70000602C0020FC920020FFFF7F009D
:109A100010B54FF40041002001F0CCF920B1044A08
:109A200040F25F31FCF7F6FBBDE8104001F024B8CE
:109A300008D102002DE9FF410026234800F02FFA4B
:109A40002148001F074600F02AFA204C6068009069
:109A5000A56800E000986946284004EB80000C30BF
:109A6000FFF7C6FE0028F5D101AA009901EA050317
:109A700004EB8303491CDB6842F82030401C009152
:109A80000228F2D3019800F0030001280BD002282D
:109A900010D10198032101EB90500099BDF80A60A4
:109AA00001EB900005E00198BDF80A60C0F3831057
:109AB00008440090384600F0EFF908B10098606063
:109AC00004B03046BDE8F081F8990020E095002010
:109AD0001CB5C820ADF80000FDF740F803F076FC97
:109AE000FFF796FF03F004FB01A8FFF7B7F902F0B8
:109AF000DDFDFEF78BFEFFF7DFFCFFF76BFD03F0EC
:109B000031F8FDF745FCFFF733FB424D4FF00309F9
:109B10004C46288840A109EB004001F0CBF841A059
:109B2000FDF7DEFA288844A104EB004001F0C2F8FA
:109B3000FDF768FC4B4800274B4D044687612078B1
:109B4000012802D0022808D01AE0142001F0BEFD3E
:109B5000112000F09EFE022020700026A760A06861
:109B600032212844FDF742F8A0683230A06001207D
:109B700000F06BFB761CB6B2782EF0D384F8009020
:109B8000A088A0F57F41FF3902D02078032809D0B2
:109B9000607820B10120FFF78BF96770A761FFF7AC
:109BA00081FDCCE760780028F4D145F6C051020A67
:109BB0002A542A185070801C80B28842F7D300269D
:109BC0004FEA0608274805EB0801A3886A462030BB
:109BD000FEF780FD010006D024A0FDF781FA761E75
:109BE000B6B20A2002E0052008F1C80800F02DFBFB
:109BF000761CB6B21E2EE5D30120FFF759F90320DB
:109C0000FFF756F9A1691DA0491CA161FDF768FA8B
:109C1000C5E70000642D00205350495320696E6948
:109C2000740000000D0A554152542073746172741F
:109C300065642E0D0A0000004465627567206C6F34
:109C40006767696E6720666F722055415254206FB6
:109C50007665722052545420737461727465642E58
:109C600000000000982B0020742D0020626C6520FD
:109C70006572726F723D256C64000000636E743D06
:109C800025642C0070B5144682880E46054620884F
:109C9000111D0144921C994201D8FE2A01D90C20C1
:109CA00070BD521C32542088FF21401C80B220809D
:109CB00031542088401C80B220808119288803F00C
:109CC000D9FC2188084480B22080AA8842B1A968C2
:109CD00041B13044FCF7D8FB2088A9880844208093
:109CE000002070BD072070BD2DE9F047C7880446ED
:109CF000181D16468946B0FBF7F1B0FBF7F207FBDB
:109D000012009A193A44D21CB2FBF7F2DDF820A0F7
:109D100001E02468491E0029FBD13D1A8846B5425E
:109D200016D818E0BAF1000F05D0211809EB080089
:109D30002A46091D04E0204409EB08012A46001DBB
:109D4000FCF7A2FB00202468761BA844B74201D987
:109D5000354600E03D46002EE4D1BDE8F087000026
:109D600030B5024659B101F051F80021074C09E025
:109D700004EB810315685B88AB4202D111600020BF
:109D800030BD491C8142F3D3052030BD282D002071
:109D9000F8B50F46017814460546012901D16878C7
:109DA00030B12088821C9A422DD8012902D006E0C9
:109DB0000720F8BD69780144891C994223D8181AF4
:109DC000801E86B2ADF800602188B81C0844694640
:109DD0007DDF0028EDD12878022805D1BDF80010DC
:109DE000B14201D809210AE00821012805D168788B
:109DF000B04202D8ADF8000001E0ADF80060BDF857
:109E00000000FE2801D90C20F8BD2288401CB8545F
:109E10002088401C80B2208039542088401C20803B
:109E2000BDF80010084420800020F8BD10B50A8855
:109E300049888A4203D1FCF73DFA012010BD002079
:109E400010BD70B50C460546FCF717FA002802D085
:109E500061882868084470BD01F01F0301229A4000
:109E6000D243490900EB8100114600F021B84A09AC
:109E700050F8220001F01F0201219140084000D05B
:109E80000120704701F01F0301229A40490900EBAD
:109E90008100114600F01CB8002100F00FB801212C
:109EA00000F016B808B56A46FCF759FA009808BDE4
:109EB00008B56A46FCF739FA009808BD08B56A4645
:109EC000FCF733FA08BD08B56A46FCF715FA08BD79
:109ED00008B56A46FCF71CFA009808BD08B56A4642
:109EE000FCF74AFA009808BD38B5044600258DF8FD
:109EF00000506846FDF746FD216862680868904298
:109F00000ED9401E08600178A38AE26801FB032590
:109F1000227A2168101AC0B20A79824200D20871EE
:109F20009DF80000FDF752FD284638BD38B50546BE
:109F300000208DF800000C466846FDF723FDE86818
:109F4000A98A201AB0FBF1F12A681068431C13603B
:109F500001709DF80000FDF739FD38BD10B530B136
:109F6000017A42680368891AC9B21A6006E00E20B5
:109F700010BD03681A68541C1C601170491EC9B2D8
:109F8000F7D2006800210171084610BDC20800F038
:109F900007030120895C98400840704710B5C2084B
:109FA00000F00703885C01249C402043885410BDC6
:109FB00028B1A1F11702E12A03D3072070470E2030
:109FC000704701800020704710B560B10161F72132
:109FD00020F8021B20F8021BFB2100F8021BFFF7F0
:109FE0008FFC002010BD0E2010BD00002DE9F047B1
:109FF000B0F804900C465FEA09025FD10188304E48
:10A000004FF0040A24291FD006DC102909D0112999
:10A010000CD0232931D11CE03A290BD055292CD161
:10A020000DE00146204602F0B3F826E0A01DFFF740
:10A0300067FC22E00146204602F064FA1DE001467A
:10A04000204602F0B7F918E00146204602F022F956
:10A0500013E0057A3188071D0AEB014004F1060878
:10A060002B4618A100F031FE98F80600A84200D255
:10A07000054629463888FFF7D1F8A07A00281DD078
:10A08000E1884846A5DF012560B1112816D001F00E
:10A09000BDFA024630881BA105EB0040BDE8F04741
:10A0A00000F00CBE0023A372E5723188E2880AEB4F
:10A0B0000140BDE8F047204900F007BEBDE8F08749
:10A0C000282D002050656572206F6E20636F6E6EC4
:10A0D000656374696F6E20307825782072657175BC
:10A0E000657374656420612064617461206C656EC1
:10A0F000677468206F662025752062797465732EF9
:10A100000000000073645F626C655F676174746374
:10A110005F65786368616E67655F6D74755F7265B2
:10A12000717565737428292072657475726E656423
:10A130002025732E00000000C4DC020020B102784C
:10A14000DE2A03D0082070470E207047418000208F
:10A15000704760B159B10278DE2A0AD009684160BF
:10A16000DE2101704FF6FF714180002070470E2004
:10A170007047082070477FB5054600294DD0002D57
:10A180004BD008780C46DE2847D1A88861888842E1
:10A1900002D1204603F00EFB2888012825D0022892
:10A1A0003BD011283AD0512837D135F8040F6188B7
:10A1B000884232D1A978A81C02292ED1017A04291B
:10A1C00003D0062901D0052927D1002100910222C0
:10A1D0008DF8002001914FF4C07202910391ADF807
:10A1E0000420007A05280FD010E0297A20460129A2
:10A1F00013D1A988428891420FD10121017204B084
:10A20000BDE8704003F0D6BAADF80410288869465E
:10A21000B0DF002801D0616888477FBDA8886188C9
:10A220008842FAD14FF6FF7060807FBD00F1804018
:10A230000068002800D00120704708B500F1804078
:10A24000002101600068009008BD70B5040006D0D0
:10A250004FF47A75284601F039FA641EFAD170BDC0
:10A2600070B50B4C207808B185250FE00020A06068
:10A2700060602061E060074801F00AFA054601F0DD
:10A2800029F908B901F0EEF901202070284670BDC7
:10A2900054910020C58F020038B500258DF800507C
:10A2A0006846FDF76FFB074CE068401EE060E06821
:10A2B00010B901F0FDF9A5709DF80000FDF786FBCF
:10A2C00038BD0000549100202DE9FF411C46037861
:10A2D000164D174E45F823200C3545F82340F0CE97
:10A2E0008DE8F0000C788DF800404C788DF8014036
:10A2F0008C788DF80240CC788DF803400C798DF87D
:10A3000005404C798DF806408C6802940C7B8DF8E2
:10A310000C40497B8DF80D1002B1064A6946001DBC
:10A3200001F018FB04B0BDE8F08100001492002099
:10A33000B4D902002DCD02001FB5001D069C8DE88A
:10A340001E000022694601F0CDFB04B010BD0000E4
:10A35000F0B505460478154889B0164640F8242023
:10A36000124A0869121DA2F1080742F82400487F2A
:10A37000385520226846FCF787F804942878385C22
:10A3800048B10EB10A4A00E000226946281D01F0DA
:10A3900049FD09B0F0BD0EB1064A00E00022694651
:10A3A00005F10C0001F0F4FBF3E70000282C00207D
:10A3B00051D502009DD3020030B40378054CE35C14
:10A3C0001BB130BC001D01F063BD30BC0C3001F08E
:10A3D00049BC0000242C002030B40378054CE35C19
:10A3E0001BB130BC001D01F0D5BD30BC0C3001F0FC
:10A3F000AFBC0000242C00200FB408B5039900293D
:10A4000004D004AA00926A4600F00FF801B05DF88B
:10A4100014FB10B582680446002A05D0D4E9040371
:10A42000216898470020A06010BD2DE9FC479146A7
:10A430000C00804676D014F8011B39B125290ED0C6
:10A440004046FEF7EDFC20780028F4D198F80C0087
:10A45000002867D04046BDE8FC47FFF7DABF002080
:10A46000012221782B291BD02D2902D0302908D197
:10A4700002E040F0010001E040F00200641C002A0C
:10A48000EFD100252A290ED02178A1F130020A2A25
:10A4900011D205EB850201EB4205641C303DF1E76A
:10A4A00040F00400EAE7D9F800100B1DC9F80030AD
:10A4B0000968641C0D44217800232E290BD114F85F
:10A4C000011FA1F130020A2A05D203EB830201EB3E
:10A4D0004203303BF3E76C290DD068290BD0692982
:10A4E00021D00BDC252918D0582931D063290ED072
:10A4F000642915D117E014F8011FECE7702969D021
:10A50000732932D075291BD0782909D120E0D9F8D8
:10A510000000011DC9F8001001784046FEF780FCDC
:10A52000641C90E76CE0D9F800100A1DC9F80020FF
:10A530000968CDE900500A224046FFF7C5F8EFE769
:10A54000D9F800100A1DC9F8002009680A2206E09F
:10A55000D9F800100A1DC9F8002009681022CDE9B9
:10A560000050404603F08CF8DAE7D9F800100027D5
:10A570000A1DC9F800200E68C00705D112E0404648
:10A58000761C7F1CFEF74CFC31780029F7D104E0E3
:10A59000202140466D1EFEF743FCBD42C0D9002D70
:10A5A000F6D1BDE74EB13046FBF792FF074604E017
:10A5B000202140466D1EFEF733FCBD4206D9002D1A
:10A5C000F6D103E04046761CFEF72AFC31780029DC
:10A5D000F8D1A5E7D9F80000011DC9F800100568F9
:10A5E00030214046FEF71CFC78214046FEF718FC5F
:10A5F00008200021CDE90001034610222946B0E7DA
:10A60000BDE8FC872DE9F04128B1016819B1C9699D
:10A61000BDE8F04108470D4D0D480024461B1427A6
:10A620000DE000BF04EB840005EB8000016829B158
:10A63000C969884710B10120BDE8F081641CB6FBF0
:10A64000F7F0A042EED80020F6E70000000000007E
:10A6500000000000044801214174007A08B1002084
:10A660007047012070470000C0940020012801D0ED
:10A67000032808D10449002201284A7400D0002090
:10A68000087402F085B87047C094002070B5024687
:10A69000022801D0032A45D1234C207A002841D03A
:10A6A000012833D0022831D120480023022A006833
:10A6B00002D0032A2AD11BE0E360017911B10129FC
:10A6C00024D10DE0D0E90565711B4FF48056B142ED
:10A6D00000D33146294481614569A9420ED015E075
:10A6E0000169491C0161426991420FD1237213E053
:10A6F000E168491CE160082908D9E3602372022A55
:10A700000AD00D21FEF780FE02F038F8607C28B1F7
:10A71000BDE8704000F0E4BE0021F3E7BDE8704002
:10A7200002F036B870BD0000C0940020A42C0020B8
:10A7300070B541EA4201DDE904564FF0A04441EA18
:10A74000830141EA052104EB800041EA0641C0F89B
:10A75000001770BD70B541EA4201DDE904564FF0C3
:10A76000A04441EA830141EA052104EB800041EA6B
:10A770000641C0F8001770BD70B541EA4201DDE93D
:10A7800004564FF0A04441EA830141EA052104EB5D
:10A79000800041EA0641C0F8001770BD70B541EA7B
:10A7A0004201DDE904564FF0A04441EA830141EA49
:10A7B000052104EB800041EA0641C0F8001770BD96
:10A7C00070B541EA4201DDE904564FF0A04441EA88
:10A7D000830141EA052104EB800041EA0641C0F80B
:10A7E000001770BD1CB500220B4600921146019265
:10A7F000FFF7C2FF1CBD1CB500220B46009211469C
:10A800000192FFF7CBFF1CBD4FF0A04202EB80008E
:10A810000321C0F8001770471CB5002100910B46BA
:10A82000012201911146FFF7A7FF1CBD1CB50021B5
:10A8300000910B46012201911146FFF7AFFF1CBDAD
:10A840001CB5002100910B46012201911146FFF732
:10A85000B7FF1CBD4FF0A04202EB8000D0F80027EC
:10A8600022F44032C0F80027D0F8002742EA014124
:10A87000C0F8001770474FF0A04201218140C2F894
:10A880000C1570474FF0A04201218140C2F80C1511
:10A8900070474FF0A04201218140C2F8081570476F
:10A8A0004FF0A04201218140C2F8081570470122F3
:10A8B0004FF0A043824011B1C3F808257047C3F898
:10A8C0000C25704718B5084B6C4601441B68009373
:10A8D00006E000BF54F82030D3F81035401C08C201
:10A8E0008142F7D818BD0000A8D90200034908B575
:10A8F0000844002101600068009008BD006000402D
:10A9000002494058012800D00020704700600040F4
:10A9100030B5124B01460020D3F81044224609E01E
:10A92000157A854205D1401C0A28F7DB4FF0FF302D
:10A9300030BD5268002AF3D1421CF9D00872D3F816
:10A9400010242AB152684A60D3F81024516030BDF7
:10A950000022C3F810144A6030BD0000E0950020CA
:10A960007047FCF79DB8704708B5034A0092402332
:10A97000024A00F005F808BD8DCA0200E0940020EC
:10A98000F0B595B01C4615460F4608461A9E00F0D5
:10A990000DFB182109A8FBF790FD0E96CDE909548F
:10A9A0000023082203A9384600F015FB05980690FD
:10A9B000BDF81000ADF81C00BDF81200ADF81E0087
:10A9C00000208DF821000398082600F003000128DC
:10A9D00002D0022818D032E003983346850AC0F32B
:10A9E000C2008DF8200003980FA9C0F38314A200C1
:10A9F000384600F0F0FA09A8009006AB22460FA9ED
:10AA0000284600F02FFA1AE00398840DC0F3C20024
:10AA10008DF82000082C01D2254600E00825334699
:10AA20002A460FA9384600F0D6FA2E44641B09AB1B
:10AA300006AA29460FA800F067F9002CEAD138468B
:10AA400000F0BAFA15B0F0BD0A4A012902EBC000C5
:10AA500007D0022907D0032907D0042907D00020F6
:10AA60007047022070470420704700797047407992
:10AA70007047000008E5020010B5FFF772FF0421DF
:10AA80000348FFF745FF02490120487210BD00004E
:10AA9000BC2C00202DE9F04F8DB0FEF7D1F918B194
:10AAA00000200DB0BDE8F08F7A4C4FF0000BC4F8D9
:10AAB00018B4BFF34F8F60680290A568D84628404D
:10AAC00004EB800008E021680298814201D86160AF
:10AAD000E6E7284004EB80000C3002A9FEF788FE70
:10AAE0000028F0D105AA029901EA050304EB8303CB
:10AAF000491CDB6842F82030401C02910228F2D346
:10AB0000059800F00300022802D001284ED0A9E0E9
:10AB100005985022810D8946B2EB905F00D85021F4
:10AB20000E4666F39F50059008315B4800F0F5F93A
:10AB3000070079D000F03AFA4346082205A93846C2
:10AB400000F04FFA029908F1080A2940681A8000BB
:10AB5000001D864223D94F4D0C3530B1C2B204EBF3
:10AB60008101301A90460C3104E02946F2B20025EA
:10AB700090462846C6B25346384600F032FA0AEBF1
:10AB800008032DB1324629464FEA070000F029FAA2
:10AB9000029909F1030001EB900002903BE004EB05
:10ABA00081015346324638460C31EFE70598C0F331
:10ABB0008310062800D30620059960F38911C1F39C
:10ABC0008310801C05918100334800F0A6F907002E
:10ABD00048D000F0EBF94346082205A9384600F0BA
:10ABE00000FA08F1080800260FE00298434600EA40
:10ABF0000501401C04EB81010290042238460C310F
:10AC000000F0EFF908F10408761C0598C0F38310F2
:10AC1000B042EAD847B1D4F81054D4F8180468B157
:10AC2000384600F0C9F92FE01CE0687A012804D109
:10AC30002A6828463946126890476D68002DF4D17D
:10AC4000384600F0B9F98DF800B06846FCF79AFE76
:10AC5000D4F8180408B9029860609DF80000FCF769
:10AC6000B5FE11E0D4F8104404E02168204689685C
:10AC700088476468002CF8D108480221008801EB5D
:10AC8000004007A100F016F8FEF7DAF880F00100A6
:10AC900007E70000E0950020A0E50200642D0020F9
:10ACA0004261636B656E647320666C75736865647E
:10ACB0000000000000231A4602F0B2B808B50123D4
:10ACC00000926A4602F0ACF808BD1CB5CDE900233D
:10ACD00002236A4602F0A4F81CBD3EB5069C8DE82E
:10ACE0001C0003236A4602F09BF83EBD70B586B097
:10ACF0000DF1280C9CE870008DE87C0005236A4665
:10AD000002F08EF806B070BD2DE9F0470E46804681
:10AD10001C46924608293ED894F80C9000202073D7
:10AD20001946104601F0D2FC0025B54206D218F8AB
:10AD300005201AA12046FFF75FFB03E019A120467A
:10AD4000FFF75AFB6D1C082DEFD317A12046FFF724
:10AD500053FB0025B54210D218F80570FBF790FBA5
:10AD60000068C05D10F03E0F01D03A4600E02E2290
:10AD70000EA12046FFF740FB03E00DA12046FFF7A0
:10AD80003BFB6D1C082DE5D301222146504601F006
:10AD90006FFC84F80C90BDE8F0870000202530326D
:10ADA00078000000202020007C00000025630000C7
:10ADB00020000000104810B5FF21816000210160D3
:10ADC0004160C0F81814C0F8141480F820140B481F
:10ADD00000F0F0F800280DD109480A490A4B401A42
:10ADE000C108002003E000BF23F82000401C884277
:10ADF000FAD3002010BD0000E0950020A0E502007D
:10AE0000A0E5020008E50200282D002002480349C1
:10AE1000401AC00870470000A0E5020008E50200E3
:10AE200013B56846FEF79CFF08B100201CBD024820
:10AE3000009950F831001CBD08E5020070B50848C3
:10AE40000125D0F8104480F8205405E0657221688F
:10AE50002046496888476468002CF7D170BD00001F
:10AE6000E09500202DE9FF4781460C9D00200C460F
:10AE70002F7B2873984616462946184601F026FC73
:10AE8000072E42D2DFE806F004090F161F2A36000B
:10AE900049462846FFF7B0FA37E049462846226877
:10AEA000FFF7AAFA31E0D4E9002349462846FFF724
:10AEB000A3FA2AE0A0680090D4E900234946284676
:10AEC000FFF79AFA21E0D4E90201CDE90001D4E9C3
:10AED000002349462846FFF78FFA16E004F10800E0
:10AEE00007C88DE80700D4E9002349462846FFF744
:10AEF00083FA0AE004F108000FC88DE80F00D4E9D6
:10AF0000002349462846FFF777FA002229464046A3
:10AF100001F0AEFB2F73BDE8FF872DE9F041858A74
:10AF200080462D1F4819C01CB0FBF5F0C6B2404644
:10AF3000FEF7DAFF041E19D0002020710120607195
:10AF4000E58000272546761EC4F800800BE04046C9
:10AF5000FEF7CAFF60B16179491C6171286005463E
:10AF60007F1CC0F80080B742F1D32046BDE8F081D5
:10AF7000204600F002F80020F8E72DE9F04145797D
:10AF800001466B1E002201E00968521C9A42FBD365
:10AF90000F680146002605E038460C68FEF7C6FF3C
:10AFA0002146761CAE42F7D3BDE8F0810121001D99
:10AFB000FEF778BFFEF7D2BF10B504460121001D91
:10AFC000FEF78CFF10F0FF0F04D12046BDE81040C3
:10AFD000FFF7D3BF10BD38B501240094FEF784FEFF
:10AFE00038BD38B500240094FEF77EFE38BD000061
:10AFF000064910B500204870091D0860BFF35F8F37
:10B000000349044800F0BAFA002010BDAC2C00201F
:10B0100030DA0200D494002008B500208DF800003A
:10B020006846FCF7AFFCF1EE100A20F09F00E1EE5D
:10B03000100ABFF35F8F08494020C1F880029DF8D5
:10B040000000FCF7C3FC00F045FA08B141DF08BD81
:10B0500020BF40BF20BF08BD04E000E001A2F321F3
:10B06000FBF7D8B82E2E5C2E2E5C2E2E5C6D6169FF
:10B070006E2E6300024A1060101D016070470000D0
:10B080002C76004002494058002800D0012070472B
:10B0900000700040034908B50844002202600068BF
:10B0A000009008BD0070004020B1034909680160AC
:10B0B000002070470E20704710DC02002DE9FE438F
:10B0C00006460D460846FFF7EFFF00287ED1804672
:10B0D000CDF80080CDF80480012418208DF80060A0
:10B0E000ADF80400CDF808808DF8024069462020B4
:10B0F0002A6869DF3F4F40B100F088FA024638887D
:10B100003D4904EB0040FFF7D9FDCDF800808DF8F4
:10B1100001408DF80280CDF80480CDF808808DF8CC
:10B120000380694640202A6869DF40B100F06EFA6A
:10B1300002463888314904EB0040FFF7BFFDCDF8E7
:10B1400000808DF80060F720ADF80200CDF8048093
:10B15000CDF80880694623202A6869DF40B100F0F5
:10B1600055FA02463888264904EB0040FFF7A6FD51
:10B17000CDF80080CDF80480CDF808808DF800402F
:10B180004646694601202A6869DF40B100F03EFA70
:10B19000024638881B4904EB0040FFF78FFD4FF44F
:10B1A000B0600090019602966946A1202A6869DF86
:10B1B00040B100F02BFA02463888134904EB0040F6
:10B1C000FFF77CFD00960196029600E010E08DF8F6
:10B1D00000606946A0202A6869DF40B100F016FAD5
:10B1E00002463888094904EB0040FFF767FD00205C
:10B1F000BDE8FE836C2D00204CE3020094E30200C6
:10B20000E0E30200ACE20200F8E2020058E20200D1
:10B210002DE9F0410446D0F8008060DF2168194D27
:10B22000074641451CD92888022606EB004016A196
:10B23000FFF740FD2888424606EB00401EA1236828
:10B24000FFF743FDF006D0F80C012168800200F101
:10B250000050421A288825A106EB0040FFF72EFD7A
:10B26000012467B1384600F0D1F9024628882AA1A6
:10B2700004EB0040FFF722FD3846BDE8F0812E4880
:10B280000470F9E76C2D0020496E7375666669637A
:10B2900069656E742052414D20616C6C6F636174FE
:10B2A000656420666F722074686520536F6674440D
:10B2B00065766963652E00004368616E676520747A
:10B2C00068652052414D207374617274206C6F6305
:10B2D0006174696F6E2066726F6D203078257820FA
:10B2E000746F20307825782E000000004D61786959
:10B2F0006D756D2052414D2073697A6520666F72BD
:10B30000206170706C69636174696F6E206973206D
:10B31000307825782E00000073645F626C655F658D
:10B320006E61626C6528292072657475726E656441
:10B330002025732E000000001B2D002030B517487B
:10B34000ADF5017D0078002825D04FF4FA7400BFD8
:10B35000ADF8004280A9684661DF50B105281AD0D7
:10B360000DF5017D0EA2BDE8304040F23911FAF72B
:10B3700051BF6D461A497DA800F000F907E000BFF3
:10B38000D0E90021284690477DA800F00EF97F986B
:10B390000028DDD0F4E70DF5017D30BD1B2D002028
:10B3A0002E2E5C2E2E5C2E2E5C2E2E5C2E2E5C2ED7
:10B3B0002E5C636F6D706F6E656E74735C736F6619
:10B3C000746465766963655C636F6D6D6F6E5C6EEA
:10B3D00072665F7364685F626C652E6300000000D4
:10B3E00014DC0200F8B5134C2078C0B10120A07025
:10B3F00001F016FB112814D0022001F029FB0025D2
:10B400008DF800506846FCF7BDFA11DF064625703E
:10B410009DF80000FCF7DAFA2EB13046F8BD08209E
:10B42000F8BD0020F8BDA57001F0FAFB032001F083
:10B430000FFBF6E7182D00207CB51A4C207808B1D8
:10B4400008207CBD0120A070002001F0E9FA11283D
:10B4500019D0002001F0FCFA134800260068019082
:10B460008DF800606846FCF78DFA104901A810DFDE
:10B4700005000AD0002020709DF80000FCF7A6FA15
:10B480002DB128467CBD00207CBD0120F3E7A670CD
:10B49000667001F00BFD01F0FFFB012001F0D8FA0E
:10B4A000F1E70000182D0020A8DB0200D174020093
:10B4B0000EB50749684600F061F805E0D0E90010D4
:10B4C0008847684600F071F802980028F6D10EBD52
:10B4D000C4DB02000148007870470000182D0020EE
:10B4E0000548817819B1007818B1FFF77BBF0820B3
:10B4F0007047FFF7A1BF0000182D00201FB5684658
:10B500004BDF40B1052816D004B00BA2BDE81040B7
:10B510006B21FAF77FBE184901A800F02FF806E06A
:10B52000D0E900210098904701A800F03EF8039868
:10B530000028E4D0F4E71FBD2E2E5C2E2E5C2E2EAC
:10B540005C2E2E5C2E2E5C2E2E5C636F6D706F6EEB
:10B55000656E74735C736F66746465766963655C4D
:10B56000636F6D6D6F6E5C6E72665F7364685F7340
:10B570006F632E630000000030DC02000160096888
:10B580004160AFF3008010B5D0E9002153689942C3
:10B5900001D1002104E0D1E90034A34202D01946D0
:10B5A000816010BD08314160F0E7816800290BD04F
:10B5B000026892680A44826041684B689A4203D1EB
:10B5C00008314160FFF7DFBF70474058002800D0C6
:10B5D000012070470C4A10B502F594730EE0991AD9
:10B5E000C91001EBD171491002EBC1010C68844212
:10B5F00001D90B4602E005D201F108029A42EED3CE
:10B60000002010BD486810BD50DA020000B5FFF7F9
:10B61000E1FF002800D1014800BD00003CDA020033
:10B6200008B5002242504058009008BD40580028FC
:10B6300000D00120704708B50022425040580090C9
:10B6400008BDD0F80403084000D0012070474058DE
:10B65000002800D00120704708B500224250405811
:10B66000009008BD08480068012110F0010F08D1C2
:10B670004FF0E020E02280F80024C0F88012C0F8EB
:10B68000001102480160704700E100E01805004029
:10B690000649024600200B790BB1852070470A60ED
:10B6A00001220A7100224A7170470000302C0020EC
:10B6B00004490120086004480168C1F300410029E1
:10B6C000FAD170470C00004018040040002802D056
:10B6D000014980010847704721D90200002802D0A3
:10B6E0000149800108477047D1D902002DE9F04196
:10B6F0008846054600F0A4FF234E002828461AD0AD
:10B70000FDF744FC304490F848008009032802D03B
:10B7100001280ED007E04FF0A040D0F81005E84017
:10B7200010F0010F05D003212846BDE8F041FFF7D6
:10B7300091B80221F8E700F08FFF002822D02846B8
:10B74000FDF724FC04464FF4807000EB84000F4F9B
:10B7500081B207EB8400D0F8102542F00102C0F856
:10B7600010250846FFF7C2F8B8F1000F0AD02846A6
:10B77000FDF70CFC56F82000002803D00120A04063
:10B78000C7F80403BDE8F081689100200060004024
:10B790002DE9FC41DFF8BC80044608EB04000027DB
:10B7A00090F930001346C0170E46401C01D0082700
:10B7B0004CE0B0781946C0F340022046FDF7C2FBCA
:10B7C0000546401C41D0B078410719D4C0070AD0C3
:10B7D0004FF0A04000EB8401D1F8000720F00200F8
:10B7E000C1F8000707E000217378204600910A465F
:10B7F0000191FEF7AFFF174920465431FEF7CEFB0B
:10B80000B078800718D51448317800EB8500D0F85F
:10B810001025124B1A40C0F810254FF4F8524FF47F
:10B82000403302EA042203EA01410A43D0F810152A
:10B830000A43C0F8102509E008EB0500327810F83B
:10B84000481F41EA8211017000E004273846BDE834
:10B85000FC8100006891002000600040FFE0FCFFD8
:10B860004FF0A041D1F81015C14011F0010000D0F7
:10B870000120704770B5184D95F8580008B10820A0
:10B8800070BD0020411E2A18401CC0B282F8301042
:10B890002028F8D300242046FDF746FB641CE4B2C0
:10B8A0000C2CF8D300240D49E0206C6581F80004CD
:10B8B00001264020891FC1F88002C1F800014FF421
:10B8C000BE70FFF713F80649F007C1F8040385F8C6
:10B8D0005860204670BD00006891002006E000E03E
:10B8E00000600040034890F85800002800D0012074
:10B8F00070470000689100200121B1EB507F01D119
:10B9000001207047002070470121B1EB507F01D129
:10B91000012070470020704738B50D4600F022FF27
:10B92000040014D000208DF800006846FCF72AF8C7
:10B93000207928B19DF80000FCF748F8112038BDA7
:10B940000120256020719DF80000FCF73FF80020E1
:10B9500038BD00002DE9FC5F0C4601799046DFF808
:10B960007CB101EBC1020BEB82060746307F9946A2
:10B9700010B10820BDE8FC9F594A3868054652F8C6
:10B980002110FFF7C9FF08B11120F3E7C6E90089CC
:10B99000207B0128207802D8FEF774FF01E0FEF733
:10B9A0007FFF4FF0000ACDF800A0CDF804A020786A
:10B9B000534652460121FEF703FF60784FF0FF38EF
:10B9C000FF2806D08146FEF75DFF4846FEF738FFA8
:10B9D00000E0C146A078FF2809D00022804601235C
:10B9E000CDF800A01146CDF804A0FEF7E9FE3879A5
:10B9F000A17800EBC0020BEB820080F82010E07809
:10BA0000FF2817D0217911B1FEF73CFF01E0FEF7C6
:10BA100047FFE078FEF714FF3879E17800EBC002C9
:10BA20000BEB8202D1773A79217902EBC2020BEB60
:10BA3000820081772278C5F80825C5F80C95C5F8ED
:10BA40001085A068C5F82405217B607B00B101202A
:10BA5000012904D0022905D0032908D105E040F0CE
:10BA6000020004E040F0040001E040F00600C5F8E8
:10BA70005405A079C5F8C005306810B14020C5F85C
:10BA800004030720C5F800053068012108B33868B1
:10BA90006279000B40B200284FEA421206DA00F049
:10BAA0000F0000F1E02080F8142D03E000F1E02009
:10BAB00080F800243868000B40B200F01F0301FA40
:10BAC00003F24009800000F1E020C0F88022C0F8B5
:10BAD0000021504686F81DA031774BE72C920020BC
